:020000040000fa
:080000000002040000000000f2
:020000040000fa
:100400004f6421000ef723000e0188000000000059
:100410000c00070000612d00010020001100070002
:10042000000020000000e000020032000000020096
:1004300000000000dcd10200000000000040da00f3
:100440000000fe004440a900400b20000000e00036
:100450000300320000002000a00188004440a800f2
:100460000000060091018800800078000000eb0089
:1004700015003700e280400032a0b4009101ba00bc
:10048000e280400032a0b4009102ba00e280400055
:1004900032a0b4000002eb00472bde00f507b200eb
:1004a000602ce10004003a000059eb008301e900f0
:1004b000fdff3e00040037006128e100010032002a
:1004c0000082eb00040007001101ba000200e00006
:1004d000e8ff3a00000006003159ba008301e90044
:1004e0000c0032002159ba008301e90008003200f3
:1004f0000400e00003003a00e280400032a0b400b3
:10050000f5ff370011d9ba008301e900faff3a007c
:100510008100e800e180400032a0b4000000060045
:1005200086d304000000000090d304000000000007
:1005300040d4040000000000ced004000000000001
:100540008aa50400000000007a57040000000000a3
:100550003873040000000000aa75040000000000c9
:10056000c6530400000000001c4f040000000000ff
:10057000a66c040000000000c86c0400000000002d
:10058000e8540400000000008a5b04000000000042
:10059000565f040000000000745f040000000000cb
:1005a000de52040000000000569904000000000024
:1005b000fca004000000000062a204000000000093
:1005c000d2a304000000000056a2040000000000b6
:1005d00086a6040000000000945304000000000000
:1005e000c861040000000000d2690400000000009f
:1005f000ea63040000000000ee6e0400000000004a
:10060000b01b040000000000641c04000000000097
:100610005a1b040000000000081c04000000000039
:10062000bc1c0400000000003e1b04000000000091
:10063000201b0400000000004c1b04000000000010
:100640002e1b040000000000641b040000000000da
:10065000181d040000000000340f0400000000001a
:10066000300f040000000000000004000000000043
:100670000040da000000fe001000fa00c0bf9f003a
:10068000d1bf9f00e2bf9f000000eb00a0bf9f0012
:100690000040eb00a0f79f000000eb0080bf9f0030
:1006a0005fb89700610060000004e00003003200c2
:1006b0002ff097000014a000a0f79f005fb89700ec
:1006c0000000d100610060000004e000030032007f
:1006d0002ff097003040b300a0f79f005fb897005d
:1006e0004c00de00610060000004e0000300320006
:1006f0002ff097000024a000a0f79f005fb897009c
:100700004b00de00610060000004e00003003200e6
:100710002ff097000034a000a0f79f005fb897006b
:100720004800de00610060000004e00003003200c9
:100730002ff097000044a000a0f79f005fb897003b
:10074000630060000000e000080032005fb897001e
:1007500001802100010060000000e00003003a0079
:100760002ff097008041b300a0f79f000000eb003e
:10077000b0bf9f00150037003fb897004300dd0071
:10078000e4004000c0fa20000080400010407800e3
:100790000004e0000a003a003fb897004300dd0083
:1007a00080007800c0fa20008080400081bf9f0058
:1007b0003fb8970063004000a0bf9f0006003700cd
:1007c0003fb897000000e800b0bf9f003fb8970017
:1007d000e20f5000e8ff34000fb897000000e0007f
:1007e00005003a0020002000804288000080eb00d5
:1007f000f0bf9f00100037002ff19700cfb897008f
:100800000fb897007cc9020000000000b0bf9f0035
:100810003fb897000000e000050032003fb89700a5
:10082000804288000080eb00f0bf9f00020037008c
:100830002fb89700f0bf9f007fb897000080fa00a4
:10084000000006000200fa00f0bf9f007fb897008a
:10085000e20f5000100034007fb897004300dd0025
:1008600080007800c0fa200078005000008040002e
:1008700092cd020000000000ffb897006380500096
:100880004300dd00e4004000c0fa2000808040000a
:100890000040eb00804878000000eb000080fa0088
:1008a000000006001200fa0090bf9f00a2bf9f0048
:1008b000b3bf9f00c1bf9f004fb89700f0bf9f001c
:1008c000ffb89700e18f50000a0032007fb8970010
:1008d000e20f50000a003200ffb897000100e0006c
:1008e000010032000800370010c0b30080f79f00fd
:1008f0000500370020c0b30080f79f0002003700da
:1009000030c0b30080f79f002fb99700bfb99700a0
:100910001fb897004300dd0080007800c0fa200077
:1009200078005000008040008ff09700accb0200b0
:1009300000000000f0b79f007fb097000000e000cb
:1009400007003200ffb09700814288000080eb0072
:100950008080eb00d0bf9f00e1bf9f000400370004
:100960002fb89700bfb89700d0bf9f00e1bf9f008e
:100970005fb89700efb897000080fa00000006000b
:100980001800fa00b0bf9f00c1bf9f00d2bf9f00f8
:100990000022200090bf9f002022200080bf9f00e7
:1009a00060222000f0b79f0080222000e0b79f0067
:1009b0003fb89700f0bf9f007fb897000000e000ad
:1009c000070032007fb897000000e0004c003500bf
:1009d0007fb89700e20f500049003c005d003700ef
:1009e00020738000204090000004e00059003a008d
:1009f000902f8200e10f50000b0032008023200076
:100a00000000e000080032000023200090bf9f009b
:100a10002023200080bf9f0060232000f0b79f00ac
:100a200080232000e0b79f001fb8970090409000ff
:100a300000c8b30000c060000004e00008003a00f5
:100a4000efb097000000eb00800878001fb9970016
:100a50009240900000c8b30000c0700010419800a0
:100a60005fb89700a0bf9f001d003700000a20005c
:100a7000d0b79f00030037005fb097000000e90087
:100a8000d0b79f000fb89700104078006140600019
:100a90000004e00003003a005fb097000000e000af
:100aa000f5ff3a000fb897001040780061406000f1
:100ab0000004e0000d003200cfb897007fb097002f
:100ac00010007800804878004fb897000000e800d8
:100ad000c0bf9f002fb897000000e900a0bf9f0093
:100ae0002fb897000000e000e0ff3a002fb8970011
:100af000dfb8970000805000d0bf9f00150037007e
:100b00005fb897006101b8004fba97003fb89700ef
:100b10004300dd0080007800c0fa2000780050001b
:100b20000080400084007800eacb02000000000052
:100b3000c0b79f004fb097000000e00005003200f2
:100b40004fb09700804288000000eb00e0bf9f009c
:100b5000020037005fb89700e0bf9f006fb89700b2
:100b60000080fa00000006000200fa00f0bf9f00bb
:100b70007fb89700f4c80200000000000080fa006f
:100b8000000006000400fa00e0bf9f00f1bf9f00d4
:100b9000ffb897006fb8970024c90200000000005a
:100ba0000080fa00000006001200fa00c0bf9f009b
:100bb000d1bf9f00e2bf9f0000222000a0bf9f0086
:100bc0002022200090bf9f004022200080bf9f0075
:100bd00080222000f0b79f004fb8970060004000cf
:100be000e20f500039003e00802320000000e000aa
:100bf0000800320000232000a0bf9f002023200017
:100c000090bf9f004023200080bf9f0080232000d2
:100c1000f0b79f002fb897009040900000c8b30035
:100c200000c060000004e00008003a00ffb0970038
:100c30000000eb00800878002fb9970092409000e8
:100c400000c8b30000c07000104198001fb89700a2
:100c500010409000644060000004e00004003a008e
:100c60001fb89700904090000124a0001140980008
:100c70006fb89700b0bf9f00100037001fb89700f3
:100c800010409000614060000004e000fbff320073
:100c90005fb89700104078008000fb000fb8970005
:100ca000010878005fb897000000e800d0bf9f00ff
:100cb0003fb897000000e900b0bf9f003fb8970021
:100cc0000000e000edff3a00150037006fb8970014
:100cd0006101b8005fba97004fb897004300dd008c
:100ce00080007800c0fa20007800500000804000aa
:100cf00084007800eacb020000000000b0bf9f0033
:100d00003fb897000000e000050032003fb89700b0
:100d1000804288000000eb00f0bf9f000200370017
:100d20006fb89700f0bf9f007fb897000080fa006f
:100d300000000600040037000204e0000a00320050
:100d40000000e8008100e80010417800914f510058
:100d5000f9ff32000081eb0010407800914f500005
:100d600004003900020037000001eb0001003700e9
:100d7000120020000200780000000600889fbe00dc
:100d8000e30440000900a100808f54004a003600af
:100d9000e38f540001003e0049002000e281800002
:100da0000200e00002003200820078000c003700f0
:100db000e103210003003700908f54002300360028
:100dc0008080e800110078000000e000faff3a009f
:100dd0000f003700908f54001c0036008080e80020
:100de000110078000000e000faff3a0012017800dc
:100df000e103210003003700908f540013003600f8
:100e00008080e80011007800820f5000faff3a005d
:100e1000d8818000890f5400010031000904780056
:100e200008007800810107000000e00004003a009b
:100e3000890f5400200032000804d100f5ff37006c
:100e4000081878002e000700d4ff37001101780041
:100e50009201780064805100890f50000300310036
:100e60001200900080087800070037000900410058
:100e7000800878009201900013009800110078001b
:100e80001288140009097800910078000100e00040
:100e900005003200110090000000e0000200320066
:100ea0000180e800010037000000eb00e0818800cd
:100eb0000280e800010037000000eb004f04be0094
:100ec0000000060080007800010037000000e80004
:100ed0001004e000fdff3a00010050000000060091
:100ee00080017800000178003140780000597800d6
:100ef0000004e000fcff3a00030078000000060058
:100f00000000e000310032008080e90091027800aa
:100f1000e38f52002d0036000508a3002b003a0095
:100f2000f28180000200e00002003200828f500057
:100f30000400310002087800f181880016003700b3
:100f400003017800920190000300e00002003200eb
:100f5000818f5100faff390012027800040041002d
:100f6000808f500019003900810f500003003a00b3
:100f70000509420082007800070037000300e00006
:100f80000300320005804000808f51000f003900bf
:100f90009300980011019800110190000200e000f8
:100fa0000a00320011804000820f500007003a0012
:100fb000c00321000008eb0011009000110178002f
:100fc000900841001000900090009800000006007a
:100fd0008001eb000200370061f079008301e80036
:100fe000828f5100fcff3a00000006008001eb00f8
:100ff00002003700817178008301e800828f510080
:10100000fcff3a00000006008001eb0008003700fa
:10101000e342780063c278008301e80084cf520085
:10102000030032000080eb000400390010000500ce
:10103000828f5100f6ff3a000000eb00000006002e
:10104000040037000204e00001003a00000005003f
:101050000000e80010417800814f5100f9ff3a008c
:1010600000000600800078001106b1000300350082
:101070009101b10001003c000050a10000000600f9
:101080000400fa00889fbe00108180000000e0008c
:101090000100320000000100c06780000000e00095
:1010a0000100320000000100f08080000000e0003c
:1010b0000100320000000100116980000081800001
:1010c000810f50002f0032001104e00002003a00ae
:1010d000f200070010698800668157002100200097
:1010e000106980004901070000047800a200200078
:1010f000e8805700650107000001be00d08088002d
:10110000e18088004fb89700880050005fb89700d2
:10111000808f500009003a00c0ae2f00f1ff2f0071
:10112000800f5100818f590004003400305120009d
:10113000800f5100e08f5900030034006000b800b8
:10114000d0808800e1808800d8808000e98080001d
:1011500042062000030020000800be00ab07070085
:1011600082022000030020008f07070008005000c3
:1011700089805800d0808800e18088001069800054
:101180000081880042fc2f00f3ff2f00d0808000f8
:10119000e1808000840707004f04be000080fa0051
:1011a00000000600889fbe001004be00b4ff0700c8
:1011b00008014000898148008080eb000000eb00be
:1011c000970107004f04be00000006001000fa005f
:1011d000889fbe008a9fbe008c1f780000067800a2
:1011e000c0019000c2002000110009008201d80057
:1011f000000178006c10b9008081510002003b00b2
:10120000ec8141000201e9000200e00006003d001f
:101210000000280002005000dc009000808f500089
:1012200008003d007a0037000200e00005003200af
:10123000f0ff270002005000dc009000810f5000fa
:10124000730035005c0490000804410083007800be
:1012500008007800560107000000e900cf80de009a
:101260000101780082017800041825001500200093
:101270006033b80074070700f0b79f0081bf9f007c
:1012800092bf9f00a3bf9f00cfc4de000905780076
:101290008a05780004382300151e20006033b8004a
:1012a0000800be000a01be00670707007fb2970072
:1012b0008fba97001fbb9700afbb97000404400094
:1012c0008584480006054900878549003c00900058
:1012d000cf80de000101780082017800041825002b
:1012e000150020006033b8005707070008044000cd
:1012f000898448000a0549008b854900b8b79f00da
:10130000c9b79f00dab79f00ebb79f002c00900091
:10131000cf80de00010178008201780004e1200026
:10132000050020006033b800470707000205be0033
:101330000004be001c009000cf80de000101780098
:1013400082017800c4032000050020006033b8004b
:101350003d07070008044000898448000a05490049
:101360008b8549001c007800cf80de0001017800e9
:101370008201780008044000898448000a05490079
:101380008b8549003fb09700cfb097005fb19700c1
:10139000efb197000004440081844c0002054d0029
:1013a00083854d000800be000a01be0054070700f7
:1013b0006011b8008e0707000000e000140035003f
:1013c0000805be0000e82700a13a280000045400e8
:1013d00081845c008c0890000801be000c0078003d
:1013e0000f0107000c0890000000e000040034002a
:1013f00000c92800a13a28000004550081845d003e
:101400001fff07000000540081805c0002003700cd
:101410000080eb008080eb004f0678004f05be0097
:101420004f04be000080fa00000006000000e0004b
:1014300003003400b6060700e10f400001003a0047
:101440000000eb0000000600c06780000000e00024
:101450000100320000000100a0cf200000000600c3
:10146000881f780000047800807c80000000e00085
:101470000100320000000100a4e320008801780090
:10148000a25f2400a101200020f920005f010700d5
:1014900020f920004f04780000000600889fbe005d
:1014a0008a1f7800805f24001004e00053003a0097
:1014b00020002100ac060700b02f8a000000e000e9
:1014c00046003a00b0002100a7060700b02f8a00ae
:1014d0000000e00041003200000478001aff200004
:1014e000984478000900fb00b70107000000e00005
:1014f00038003200094d7800080178003240780049
:10150000404598000a05e80040ff2000800f550084
:101510000200320002047800f1ff370092407800a8
:10152000d0c2b30080cf50000500320000c0e900f7
:1015300080cf500002003200804078000100370068
:101540000881e80090ff2000014878009240780070
:101550000100fb0003fd2f0003004000e90f5000d5
:101560001c003e00a0ff200001487800924090003f
:101570000100fb0003004000e90f500015003e0091
:10158000b0ff2000014878000284e8001800fb004a
:101590008d0107000000e0000b0032005aff200020
:1015a000984478000900fb00870107000000e00074
:1015b00008003200095d78000804e80080ff200080
:1015c000800f5500f6ff3a0000ff20001804e000ed
:1015d000010032000000eb00b02f8a00b02f820023
:1015e0000000e00002003a00707f8000b02f8a0007
:1015f00021c0b300805f240001487800b02f820032
:101600004f0578004f04be0000000600889fbe0012
:101610008a9fbe000004be00820578001045780055
:101620000a04e000010032000004e8008a00fb0028
:101630000800780082fe07000000e00003003a0086
:10164000080078001ffe0700000044000900e000c9
:1016500002003c00880d5000080037001004e00034
:1016600003003a00800deb0000047800030037000f
:101670008904e9000004e800ecff37000800780066
:101680004f05be004f04be00000006000200fa0035
:10169000889fbe008a9fbe008c1f7800800578005e
:1016a00001057800020678000100e00001003a0020
:1016b0006c8557000b047800010037000804e8002f
:1016c000984478000900fb00490107000000e00091
:1016d000faff3a00d0c2b30080cf540005003200b8
:1016e00000c0e90080cf540002003200804478003e
:1016f000010037000804e8000c0178008a00780037
:1017000008007800420107000001be009a0f540053
:1017100001003a000b0d78009a8f550003003a0043
:10172000e00f5100e08f59000f003a00b0c2b30043
:1017300080cf540004003a00e00f5100e08f5900c0
:1017400015003d0008003700d0c2b30080cf540020
:1017500011003a000000200001002800800f510015
:10176000818f59000a003600200220008042880044
:1017700002002000030028006b40400080cf54008e
:1017800005003200f2ff2f00f3ff270002003700b0
:1017900060011100e08119000200be004f067800d0
:1017a0004f05be004f04be000080fa000000060096
:1017b00080017800010278000000e000060034009b
:1017c0000000e90042002000110009000200d800da
:1017d00000017800080037000001eb00e40f400032
:1017e00005003c00640010004200200011000900c8
:1017f0000200d8000001e8006380610003003a00a5
:1018000061f320000300e00001003a00e1f4200051
:1018100004004200010040001000410000000600ea
:101820000800fa00889fbe008a9fbe008c1f7800c7
:10183000000678000104780000e82700a13a28009b
:101840000201400083814800f2b79f0083bf9f00e0
:101850000c00e00005003a00607f8000acfd200035
:101860000000e0000100320000000100080e9800b6
:101870007fb097008fb8970090bf9f00a1bf9f00d7
:1018800002182500130020001fb89700afb897007a
:10189000cb0507000005be0061004000e080480065
:1018a0007200200003002000530607006006980025
:1018b000d2162000030020000a00be00d305070056
:1018c00000047800010037000804e9008000eb0004
:1018d00008007800b6ff07006101b900d0162000ab
:1018e00000c0b9000200400083804800800f55000e
:1018f000818f5d00f4ff35000001550081815d009e
:10190000580698000203780072069800630064008d
:1019100003003a0060f320000800e00001003a00f4
:10192000e0f4200076024000c50020008502e900b6
:1019300024007800cf80de00800f5100818f590095
:10194000faff35004506980014009000000053008f
:101950000000e8003006980002182500130020005f
:101960001fb89700afb89700a50507000004be0098
:1019700002e12000030020009105070020069800e6
:1019800002e12000030020000800be009c050700c3
:101990000004be00c20320000300200088050700e9
:1019a00010069800c2032000030020000800be00bb
:1019b00093050700000e78000c0890000000e0007e
:1019c0000c003d000c00780032010700000e98006a
:1019d0000000e0000700340000e1200001002000ca
:1019e0007fb197008fb997000200400083804800c4
:1019f000a1ff37000c0078004f0678004f05be00ad
:101a00004f04be000080fa00000006008f02b00004
:101a1000889fbe008a9fbe008c9fbe008e1f7800ec
:101a2000800578000106780082047800f3b79f00f3
:101a300084bf9f000200780022fd070000057800a7
:101a40000b0778008006eb004f0037008d06e90099
:101a50000d804600c2fc2f000f0141008280e8008b
:101a6000e1047800e80041006105780099407800c1
:101a70000180fb000000ea004f04de00888444007f
:101a80000805550050c2b30080cf500002003a0054
:101a90000a00e00009003a00880f560043003900b0
:101aa00088805400080178000b00780048fd07008a
:101ab0008885450008065600330037001944780031
:101ac00050c4b300804f5400050032006a4040000b
:101ad000804f5400020032000044eb000100370048
:101ae0008904e800a4fd2f00848247006e025200a2
:101af0000f02420099417800084178008fb89700a2
:101b00007fb0970066020700800178000804e000bb
:101b1000010032000a05e9008904e8000a05e9002d
:101b20006fa197000200e00009003400820f560008
:101b30001e003900830078000b00780024fd0700a8
:101b40006fa0970080854500000656000e00370004
:101b50000a00e0000a003200e28f560008003e0052
:101b60000d804600c4fc2f000f0242008480e80074
:101b700089307800e80042008a3078008d06e8005d
:101b80000205ea00830478000a00e000b7ff3a008b
:101b90000d00e000adff3a000c00e0000300320051
:101ba0008d4d78000e805500010037000000eb00dd
:101bb0004f0778004f06be004f05be004f04be0021
:101bc0008f02b100000006001004b10007003500cc
:101bd0009001b100040034007000b1000300350032
:101be0009001b10001003c0010000500000005005c
:101bf0006900e100040035006d00e10003003400dd
:101c00000002b100010032000000050010000500d4
:101c1000ec874700889fbe008a9fbe008c9fbe0055
:101c20008e1f7800f0b79f0081bf9f00820478006c
:101c300000047800010037000804e8001847780025
:101c40000e00fb00eaff07000000e000faff3a0088
:101c5000d0c2b300804f57000500320000c0e90039
:101c6000804f570002003200004778000100370023
:101c70000804e8000900e00045003500e18f540049
:101c80004300320040022000808f540040003c009e
:101c90000900e0000e003400f08f54001a003a00f2
:101ca00000c3b300984f100016003a00984090000f
:101cb00080c7b30080cf50000300320080c5b3005e
:101cc00080cf50000f003a000884e8000e00370073
:101cd000a900200000c3b300984f10000a003a008a
:101ce0009840900080c7b30080cf500004003200bd
:101cf0008900200080c5b30080cf500002003a0068
:101d00000884e800090120000805780000c3b3003a
:101d1000010037000a05e8009a4f1000fdff32006d
:101d20008a0578006066b8000e00370010f12000c8
:101d300000425200c4ef9f006149b9000c00be0090
:101d4000990407004fea97000401fb00cf91de00e1
:101d50008b05e800ccb79f00ddb79f00000641006f
:101d6000818649001b00fb00bc030700800078004f
:101d70000901780010f12000bf030700000278007d
:101d80000000e000e9ff3a008b0f540006003a0023
:101d90000fb897000000e00029003200ffb0970064
:101da00001087800260037008a805500c0ee200028
:101db00060c07c000000fb00008050001600330073
:101dc0004240a9000f003c004fe997000200fb00d1
:101dd000cf80de000000560081805e00800f56003c
:101de000818f5e00070039006149b9007404070063
:101df0004fb19700dfb19700820f5000838f5800da
:101e00000500320020022000804288000086eb009e
:101e10008086eb0005003700d0c2b300804f57002a
:101e200002003a0060061600e0861e008fb9970097
:101e30000300e000030032008b0978000100370046
:101e40006066b8000c00be004f0778004f06be0069
:101e50004f05be004f04be00cf00b10000000600d9
:101e60006081800026fc3700881f7800280321004d
:101e70001804e00004003a0000f320008803070083
:101e800020c0b300004c7800100020004f04780000
:101e900000000600e6874700889fbe008a9fbe00bc
:101ea0008c9fbe008e1f78008005780080818000a6
:101eb0000000e0000100320000000100802f8200dd
:101ec0000000e0000100320000000100c067800057
:101ed0000000e00001003200000001000169800004
:101ee00070818000810f50001b0032001104e0005f
:101ef0000e003a00106980001004e00002003a0071
:101f000066fd0700106988007281570031002000cb
:101f100010698000bdfd0700006988001004e00022
:101f2000020032000000e9000069880000698000ba
:101f30007a030700000478000085eb000000e00051
:101f40005100320060818000edfb0700688188004d
:101f500000698000708188005b0090008000eb00c9
:101f600013fe0700800678007b0090007800b9001f
:101f70002b0190000000410080bf9f005b0090009b
:101f8000d21620000280b9006169b900000041004a
:101f90008180490061004000e0804800720020001c
:101fa00003002000940407006e0740006881800051
:101fb000e90444000005eb003000370064064400eb
:101fc0005b0190001c80fb00820f500029003c0048
:101fd000b84090008180fb0002007800f4fd07000b
:101fe0000d005000a84090008180fb00810140005e
:101ff000184278000404e0000f0032000e80410017
:102000008480fb00010050007200200011000900d4
:102010000200d8000100e00002003a000100780050
:10202000010037006780100080814100e74f5200b7
:1020300001003e00e78151007819b9001840900076
:102040000080fb00020040008fb89700808f500096
:102050000d0035001c467800994f560004003a00e8
:102060000a00e00002003a001a00200001003700d8
:102070000005eb0065044400e584440000c0eb006b
:10208000984f1000cdff3a000a0078004f07780003
:102090004f06be004f05be004f04be006f00b100ea
:1020a00000000600889fbe008a9fbe008005780061
:1020b00001047800020578008304780084407800e9
:1020c000050178000800e00001003d000004eb007d
:1020d000f0c4b30080cf500006003a0022109000f8
:1020e000090178008800780048fd07001900e00029
:1020f0000e003c008a0c78000a8145000049eb0084
:10210000a300200006003700110009000304d800d6
:102110008000fd0004c3b3000461400001047800a6
:102120000a05e900f8ff3b00020078004f05be00f9
:102130004f04be000000060080805000e780400091
:1021400073002000110009008300d8008000fd000a
:102150000001510003014100110009000301d800f2
:1021600000000600889fbe00810478000204780009
:1021700010002000f0ff07000002780080017800c6
:10218000088054003017b0007200200011000900d0
:102190000200d800d016200001004000811f780006
:1021a000110009000200d80001017800cf0078007a
:1021b000b0162000800f540003003400e20f5100dd
:1021c00004003a0010003700a0162000800f5400d1
:1021d00003003400e30f510004003a000a00370006
:1021e00090162000800f540002003400e40f5100cc
:1021f000050032000180e900e20f500003003e00bc
:102200008401e800010037008081eb0003007800c2
:102210004f04be0000000600881f7800000478000c
:10222000d0ff07000000e00002003a000804e900c7
:10223000030037000000e00001003c000804e80053
:10224000080078004f047800000006000200fa0041
:10225000889fbe008a1f78008004780001047800ff
:10226000a2002000e88057000800780007fd070062
:102270000002be004fb99700820f540035003200b3
:10228000fac2b300924f150032003a005900900094
:10229000c176200001004000cf80de00800f520098
:1022a000818f5a0004003200840f5000858f58003f
:1022b0002a003d002b0037000204e800a2002000a5
:1022c000e880570008007800f0fc07000003be001b
:1022d0004fba9700840f54001e003200944f15002f
:1022e0001c003a00490090000000e8006101b900bc
:1022f000820f5300838f5b0004003200860f510071
:10230000878f590015003d00160037000400e800d3
:10231000a2002000e8805700dcfc07000002be009d
:102320004fb89700800f54000a0032003900900027
:102330006101b9000000eb00820f5200838f5a0048
:1023400009003200840f5100858f590003003d00c1
:102350000400370020002000030037001000200098
:10236000010037000080eb004f0578004f04be00ed
:102370000080fa00000006000200fa00889fbe00fc
:102380008a9fbe008c1f78008005780001067800c7
:102390000005eb00340037008804e8006c8157002a
:1023a000110020000900780098fc070080007800e8
:1023b0000b007800a5ff0700000178009840780026
:1023c000d0c2b30080cf500004003a000200e80001
:1023d000e10f500023003e0005003700b0c2b300fb
:1023e00080cf50001f003a00e10f51001d003e0059
:1023f0006c815700210020000900780083fc070051
:102400000001780010407800984f500004003a0016
:1024100092409000a0c2b30080cf50001a0032005a
:10242000820078000b00780088ff07000001780028
:1024300098407800d0c2b30080cf500003003a002b
:10244000e10f510007003e000f003700b0c2b3009b
:1024500080cf500003003a000200e800e10f500076
:10246000090036000a05e8001c1090006c81570036
:102470008a00780065fc0700000478001004e00082
:10248000c5ff3a0068f62000080078004f06780083
:102490004f05be004f04be000080fa000000060099
:1024a000ea874700889fbe008a9fbe008c9fbe00bf
:1024b0008e1f78008004780081057800024678003d
:1024c00004057800050778000300fb00cf80de00dc
:1024d0005002b1000180b10052052000820f50006f
:1024e000e08f5800d0013e0000600100ca013700b3
:1024f000cd013700cc013700cb013700ca013700ce
:10250000c9013700c8013700c7013700c6013700cd
:10251000c5013700c4013700c3013700c2013700cd
:10252000c1013700c0013700bf013700be013700cd
:10253000bd013700bc013700bb013700ba013700cd
:10254000b9013700b8013700b7013700b6013700cd
:10255000b5013700b4013700b30137003d00370043
:1025600044003700510037006c003700ae013700df
:102570007c0037008a003700940037009500370050
:10258000a9013700a8013700a7013700a1003700d3
:10259000a5013700a4013700a3013700a2013700cd
:1025a000b3003700b6003700bf003700c700370060
:1025b000ca003700e7003700f50037004701370051
:1025c00089013700980137009701370096013700dd
:1025d0009501370094013700930137001900370047
:1025e0007600370028003700440037004f003700de
:1025f0008d0137005f003700700037008a01370017
:102600007a00370088013700870137007e003700e5
:1026100082003700840137008400370082013700d0
:102620008a003700800137009b003700a200370086
:102630007d013700c1003700cc003700df003700d4
:1026400046013700e9009000818040002b00900097
:1026500004003700e9009000818040008100e8001c
:102660003b0090000a017800e8fb070000047800b6
:1026700073013700c9009000818040008100e800ac
:102680006b009000f7ff370050c4b300804f560036
:1026900002003a005b089000010037000b08900030
:1026a0000a0178008000eb00c100370050c4b3007d
:1026b000804f56000a003a008b007800090078002d
:1026c0002dff07000000e8000a017800310020001b
:1026d000cefb0700000478001004e00058013a0027
:1026e000d900900042062000110009008200d800a5
:1026f0008000fd00f380400001003700b900900029
:102700008b0278000c4278008a01780022002000b9
:102710000e00780063fe0700d4ff370080ff2f0013
:10272000000a780098f6200045013700b9009000b3
:102730008b0278000c4278008a0178002200200089
:102740000e00780057fe07000004780000c3b300b5
:102750009e4f10003a013a0070405000004f780040
:102760003701370080ff2f00000a780028f720008b
:102770003301370079019000e90090005900900082
:10278000a5fe070042062000110009000200d80043
:102790000100e000daff3d0082804000d8ff3700f2
:1027a00079019000e9009000590090009afe07001e
:1027b000c176200081004000db003700c900900096
:1027c000818040005b009000a6ff3700a9009000c8
:1027d000cbff3700290090006b004000c2002000b2
:1027e000110009000200d80008003700f90090002d
:1027f0008100e8008b0278000c4278008a017800a2
:1028000032002000c2ff3700c90090008100e800bc
:10281000bbff370099009000b9ff3700100020007f
:10282000000a7800b8f72000050137008000eb00af
:1028300029009000eb0f500001003400110020002f
:102840000a0178001b00780087ff370050c4b300ee
:10285000804f560002003a000b1090000100370034
:102860003b0890000a01780031002000500037003a
:10287000b0ff2f00000a7800d8f72000f0003700e2
:102880008b0278000c4278008a0178002200200038
:10289000990078009eff370010002000000a7800a1
:1028a00038f82000e600370080ff2f00000a78008b
:1028b00058f82000e2003700e90090000100e00035
:1028c0001f003a00710020001d00370079019000c0
:1028d000e90090000000eb0021003700f9069000ad
:1028e00069049000d90490000d01780088007800f8
:1028f000090078001bfe07000000e00006003a0017
:102900008d005400e78040000900e900d216200045
:1029100014fe0700030037000000e00001003c0047
:10292000100020008b0278000c4278008a017800a9
:10293000220020008000780075ff3700e900900039
:102940008b0278000c4278008a0178001200200087
:102950006fff370079019000e9009000100020001f
:10296000f5fd07008000780065ff370050c4b30014
:10297000804f560002003a006b08900001003700bb
:102980001b0890000a0178001100200008003700a1
:1029900050c4b300804f560002003a007b089000fc
:1029a000010037002b0890000a0178002100200068
:1029b00016fb0700000478006600370059009000fd
:1029c00042062000110009000200d800e1b79f0074
:1029d0000100e00002003d0082804000e1b79f005e
:1029e00050c4b300804f560035003a008b00780089
:1029f0000900780060fe0700800678000081e8008a
:102a000082bf9f001204e0002d00320059049000a4
:102a1000c076200000044400cfc4de008d01e80031
:102a2000f3b79f000a01780011002000030078002e
:102a3000f6fa0700a20020008000eb0013fb07005d
:102a40000004540081845c00d0c2b3009d4f10008c
:102a500002003a0060041400e0841c00a200200080
:102a6000f68057000fb8970008fb070008004000e9
:102a7000898048005fb197008fb99700828f51001d
:102a80000f00320012417800ffb19700934f5100c0
:102a90000b003a00e0b79f0018002000010037004b
:102aa0000804e800a20020000300200057010700ee
:102ab000e00f5000e08f5800f9ff3c0001003700a4
:102ac000280020008b0278000c4278008a017800f0
:102ad00008017800efb097000dff370050c4b30035
:102ae000804f56000d003a008b00780009007800f6
:102af00021fe07000000e8000a01780041002000e4
:102b0000c2fa070000047800b0c3b300984f100069
:102b1000020032001a00e00008003a00d9009000dc
:102b2000c0762000808040008b0278000c42780044
:102b30008a01780042002000f5fe3700b103200032
:102b4000080078003ef907000000e00001003200b4
:102b5000080d50001a0dea00390037004b109000a4
:102b60001004e00001003a004cfa07000a01780066
:102b700021002000a5fa0700000478001a00e000f8
:102b80002f003400090890000000e0002c00340001
:102b9000a20020008000eb0008007800bbfa0700cc
:102ba000410620008080400003003300b0c2b30023
:102bb000004f780003003700d0c2b300004f780008
:102bc0008100ea000e00e8008b0278000c427800d9
:102bd0008a0178004200200032fd07000004e9006d
:102be0001a0de800160037000004eb0009089000f9
:102bf0000000e00001003400180020004b1090009d
:102c00001004e00001003a0024fa07000a017800ed
:102c10008800780094fe370010002000000a780039
:102c2000e8f8200006003700034f78000040eb0072
:102c3000104798000e04780020002000000d780056
:102c4000080078004f0778004f06be004f05be0011
:102c50004f04be00af00b100000006008000780005
:102c60001104b100030035009101b10001003c00e6
:102c70000050a000000006008001eb0004003700b7
:102c80008301e80090cf1000040032000000e8004b
:102c9000828f5100faff3a000000eb0000000600ae
:102ca00000017800000020000000e0000800320071
:102cb000000080000000e000050032000000e90094
:102cc00000008800000040000100800002b0780091
:102cd0000000060080017800010178008000eb0010
:102ce000040037006a08b900000042008500400077
:102cf0008301e8000201e900060033001302fb0033
:102d000005fd2f0005004200e90f5000f5ff3600d9
:102d10008080eb000100780000000600e887470093
:102d2000889fbe008a9fbe008c9fbe008e1f7800c9
:102d300030477800800478000e04e0006c00320018
:102d40002a002000020037000800e8000a05e80019
:102d50008e00fb00baf80700000478000000e000d5
:102d6000f9ff3a006550b90004f8070080bf9f00e2
:102d7000800578000000e0005d0032000006e800f9
:102d800000057800e8b79f0080c2b300994f10009b
:102d90000c003a000900e80041002000cdff0700c8
:102da00041892f0001004000e0b79f004800330038
:102db000d940900090c2b30080cf500044003a0048
:102dc000e68444004fe89700e0ef9f0040459800fc
:102dd0002100200009007800beff0700e30645003f
:102de000804ee9000980e80021002000b9ff0700bb
:102df0000a84e800004ce900648144001200fb00f2
:102e00000003b100e90f500006003e002100200041
:102e100002007800afff0700004e78006681440092
:102e200001003700004eeb00b0c0b3009d4f100012
:102e300027003e0030c6b300984f100024003e002b
:102e40009c4f100022003e0092407800b0c2b300b8
:102e500080cf50000500320000c0e80080cf500055
:102e600002003200004deb0010003700924190004c
:102e700000cdb30000c24100e64f520014003e00f6
:102e800071c0b30000c3b30080cf51000100320015
:102e900084407800014d7800b0c2b300924f10001a
:102ea00001003a0067cd40000281e800124078003e
:102eb0000004e00009003200650646008e4f500015
:102ec00003003a00650545008204e800aeff3700c4
:102ed0000fb897000af807000500370065004500a5
:102ee00000c8eb00efe89700414098000100370070
:102ef0008005eb000b0078004f0778004f06be00fe
:102f00004f05be004f04be008f00b1000000060058
:102f1000889fbe0080047800702f82000000e000cf
:102f200003003a00110007000000e0000a0035002d
:102f3000702f82000900e00002003a0000047800cf
:102f40000600370000047800090040000700070071
:102f50000000e00001003d000084eb000800780064
:102f60004f04be000000060000000500800078004d
:102f70000000e00004003a0040042100702f8a00a5
:102f800001017800060037000081eb004064210059
:102f9000808f500002003e00712f8a000001eb007c
:102fa0000200780000000600020ab900001bb90008
:102fb0000200b800810042008100430000000600ca
:102fc0006022b800060220000000d0008180d200fc
:102fd0000482d2008582d2000000a00002025200ca
:102fe00083825a00030031000202420083824a00b9
:102ff0000000a1000603e900f3ff3a00000006000c
:10300000efff07000400be0000000600839f680079
:103010000100e00002003d0060001000e0801800a8
:103020000300e00002003d0060011100e081190092
:10303000e3ff07004f00e00002003b0060001000cb
:10304000e080180000000600889fbe008a9fbe0036
:103050008c1f78000205be000004be000006eb00d5
:10306000e00f5000e08f5800e00f5900e08f59004a
:1030700007003d006000b8006011b800080450006f
:10308000898458000a0559008b8559001c002000ce
:10309000e00f5200e08f5a00e00f5b00e08f5b0012
:1030a00002003d000f0007000c00a2000800be0057
:1030b0000a01be005f0007000203be000002be005e
:1030c0000c00e00001003200060007000400be0012
:1030d0000601be004f0678004f05be004f04be003b
:1030e000000006006000b8006011b8000402500043
:1030f00085825800060359008783590000000600a6
:10310000889fbe008a9fbe00030578000300e00090
:10311000050035000b003c000082700004027100c5
:10312000300032000700370060001000e080180017
:1031300060011900e081190002003b0001f02d0040
:10314000280037000004be000200be006011b80075
:103150006b092000950220000182cf000a0039008f
:103160000541b1000082cf00070039000541b100e0
:103170000982cf00040039000541b1000882cf0068
:10318000010039000541b100054252001200320031
:103190000a003b0082817100610164008100d1005e
:1031a0000080d3008984d3000884d3008b05e80015
:1031b0000442e800f7ff3a00070037000804440023
:1031c00089844c0000004800818048008b05e9009c
:1031d0000442e900f9ff3a00380007000af0a700ae
:1031e00001f0a0004f05be004f04be000000060025
:1031f0001400200057003700811f78000100e00014
:1032000002003d0060001000e08018000300e000b4
:1032100002003d0060011100e081190078ff070005
:103220004f00e00002003b0060001000e08018004a
:1032300000000600889fbe008a9fbe008c9fbe00d3
:103240000404b8000506b8008904460060854e00f5
:103250000606b8000a054600e0854e000706b800dd
:103260008b054600040eb800890446000a854e000e
:10327000e0854d00050eb8000a0546008b854e001e
:10328000060eb8008b0546000416b8000a05460075
:103290008b854e000516b8008b054600041eb8004d
:1032a0008b0546000800be000a01be004f06be00a6
:1032b0004f05be004f04be00000006008100200044
:1032c000618055000b003d000b00200061fe2f00c7
:1032d0000100e1001d003400828171006101640081
:1032e0008904d1000884d3000000e800faff3a0006
:1032f00071002000610064000300700002006000a3
:103300000900320061044400e0844c000988a500f3
:10331000050032008b05e8006808e10002003a0071
:103320008904d1000884d300f20f20000258e10084
:1033300005003d00c75ddd00f907b200898075001a
:1033400008007800000006000bf827008b007800ca
:1033500000000500889fbe008a9fbe00841f780081
:10336000170007004f00780011003300f0ff2f0016
:10337000838f6c0006003b00040565000a00a7006f
:103380000800370009f0a6001000200008003700f0
:10339000820f5400838f5c0003003900100020006e
:1033a00001003e000000200009f0a7000000ea0034
:1033b0004f05be004f04be000000e0000000060004
:1033c0000004be00060007000003be000405be00a6
:1033d0000200be0002000700844f750000000600d6
:1033e000c70ade00f107b200f50fb2000800320094
:1033f000e1cf4200020032000170a000240005006d
:10340000810f70000100320004080500440005002f
:10341000810f700002003a00140005008502e900e7
:103420000000400081c04800fcff3b000170a0008c
:04343000240005006f
:020000040000fa
:0200000401f009
:04000000bfff00003e
:020000040000fa
:1000080038030000380300003803000038030000fc
:1000180038030000380300003803000038030000ec
:1000280038030000380300003803000038030000dc
:10003800c8d500003803000038030000380300006a
:1000480050c50000380300003803000038030000e2
:100058003803000038030000ecd500003803000026
:10006800380300003803000038030000380300009c
:10007800380300003803000038030000380300008c
:10008800380300003803000038030000380300007c
:10009800380300003803000038030000380300006c
:1000a800380300003803000038030000380300005c
:1000b800380300003803000038030000380300004c
:1000c800380300003803000038030000380300003c
:1000d800380300003803000038030000380300002c
:1000e800380300003803000038030000380300001c
:1000f800380300003803000038030000380300000c
:1001080038030000380300003803000038030000fb
:1001180038030000380300003803000038030000eb
:1001280038030000380300003803000038030000db
:1001380038030000380300003803000038030000cb
:1001480038030000380300003803000038030000bb
:1001580038030000380300003803000038030000ab
:10016800380300003803000038030000380300009b
:10017800380300003803000038030000380300008b
:10018800380300003803000038030000380300007b
:10019800380300003803000038030000380300006b
:1001a800380300003803000038030000380300005b
:1001b800380300003803000038030000380300004b
:1001c800380300003803000038030000380300003b
:1001d800380300003803000038030000380300002b
:1001e800380300003803000038030000380300001b
:0801f800380300003803000089
:020000040000fa
:1002080038030000380300003803000038030000fa
:1002180038030000380300003803000038030000ea
:1002280038030000380300003803000038030000da
:10023800c8d5000038030000380300003803000068
:1002480050c50000380300003803000038030000e0
:100258003803000038030000ecd500003803000024
:10026800380300003803000038030000380300009a
:10027800380300003803000038030000380300008a
:10028800380300003803000038030000380300007a
:10029800380300003803000038030000380300006a
:1002a800380300003803000038030000380300005a
:1002b800380300003803000038030000380300004a
:1002c800380300003803000038030000380300003a
:1002d800380300003803000038030000380300002a
:1002e800380300003803000038030000380300001a
:1002f800380300003803000038030000380300000a
:1003080038030000380300003803000038030000f9
:1003180038030000380300003803000038030000e9
:1003280038030000380300003803000038030000d9
:1003380038030000380300003803000038030000c9
:1003480038030000380300003803000038030000b9
:1003580038030000380300003803000038030000a9
:100368003803000038030000380300003803000099
:100378003803000038030000380300003803000089
:100388003803000038030000380300003803000079
:100398003803000038030000380300003803000069
:1003a8003803000038030000380300003803000059
:1003b8003803000038030000380300003803000049
:1003c8003803000038030000380300003803000039
:1003d8003803000038030000380300003803000029
:1003e8003803000038030000380300003803000019
:0803f800380300003803000087
:020000040000fa
:10343400800300008403000086030000880300006a
:10344400820300008a0300008400000010000000d2
:103454009400000010000000a60000000700000017
:10346400040000008c03000090030000920300009d
:10347400940300008e030000960300008400000003
:10348400004000009400000000400000aa0000007a
:10349400000700000e000000980300009c030000d9
:1034a4009e030000a00300009a030000a203000092
:1034b40086000000000100009600000000010000ea
:1034c400b0000000070000000e000000783a000081
:1034d400007800003a5c0000666900006c6500003a
:1034e400312e00007478000074000000783a000067
:1034f4005c73000074720000656100006d2e0000b2
:103504007478000074000000486500006c6c0000d2
:103514006f200000576f0000726c0000642e0000e2
:1035240000000000222a00002b2c00002e2f000097
:103534003a3b00003c3d00003e3f00005b5c000065
:103544005d7c0000524f00004f540000000000005a
:10355400222a00002b2c00002e2f00003a3b0000f2
:103564003c3d00003e3f00005b5c00005d7c0000d1
:10357400222a00002b2c00002e2f00003a3b0000d2
:103584003c3d00003e3f00005b5c00005d7c0000b1
:083594006661000074000000f4
:020000040000fa
:10359c000400fa00e0bf9f00f1bf9f007fb89700c6
:1035ac00efb897000108780001bb21007fb89700a5
:1035bc001100980041c621007fb897003100980097
:1035cc00a1b521007fb897005100980081c021005f
:1035dc007fb8970021009800c1cb21007fb89700dd
:1035ec0041009800e1b321007fb89700610098007a
:1035fc0001b221007fb8970001089800c1b42100e6
:10360c007fb8970011089800e1b221007fb89700ad
:10361c007100980041b621007fb8970031089800de
:10362c0081d121007fb89700210898000080fa0012
:10363c00000006000200fa00f0bf9f007fb8970060
:10364c0040089000010020000080fa0000000600f5
:10365c000400fa00e0bf9f00f1bf9f006fb8970015
:10366c00ffb89700711098000080fa000000060067
:10367c000200fa00f0bf9f007fb89700c0009000d6
:10368c00300090000080fa00000006000200fa00f2
:10369c00f0bf9f007fb89700e000900050009000b2
:1036ac000080fa00000006000200fa00f0bf9f0044
:1036bc00002020000080fa00000006000c00fa0038
:1036cc00a0bf9f00b2bf9f00c3bf9f00d4bf9f008d
:1036dc00e5bf9f002fb89700104090000004e00059
:1036ec00090032008040eb005fba9700efba9700f8
:1036fc003fb99700cfb997002fb89700520c07002d
:10370c00f0bf9f00100037005fb89700efb897002c
:10371c00490add00c702de00850272004902dd00a5
:10372c003fb89700cfb897004909dd00c701de000c
:10373c00830171004901dd008040eb002fb8970038
:10374c00410c0700f0bf9f007fb897000080fa0083
:10375c00000006001000fa00a0bf9f00b2bf9f003f
:10376c00c3bf9f00d1bf9f002fb89700104090009f
:10377c000004e00011003a002fb8970010089000e8
:10378c006102b800840078003fb897000009b800c7
:10379c00e2bf9f00f3bf9f004fb8970000a0b90095
:1037ac007fb99700000141003fb897000580b90030
:1037bc0000014100f2bf9f00040037003fb89700a2
:1037cc00cfb89700e0bf9f00f1bf9f006fb9970083
:1037dc00ffb9970082bf9f0093bf9f000043eb008f
:1037ec008002eb000002eb00dfb897000fb99700e6
:1037fc009fb997002fb89700ba0907000080fa000c
:10380c00000006001400fa0080bf9f0092bf9f00ca
:10381c00a3bf9f00b1bf9f00c4bf9f00d5bf9f0037
:10382c000fb89700104090000004e00011003a001f
:10383c000fb89700100890006102b800840078005f
:10384c001fb897000009b800e2bf9f00f3bf9f00ac
:10385c002fb8970000a0b9007fb997000001410074
:10386c001fb897000580b90000014100f2bf9f000e
:10387c00040037001fb89700afb89700e0bf9f0057
:10388c00f1bf9f006fb99700ffb99700e2b79f0097
:10389c00f3b79f000043eb00dfba97004fba9700d5
:1038ac00bfb897006fb19700ffb197000fb89700a2
:1038bc008c0907000080fa00000006001000fa00d6
:1038cc00a0bf9f00b2bf9f00c3bf9f00d1bf9f008e
:1038dc002fb89700104090000004e00011003a004f
:1038ec002fb89700100890006102b800840078008f
:1038fc003fb897000009b800e2bf9f00f3bf9f00dc
:10390c004fb8970000a0b9007fb9970000014100a3
:10391c003fb897000580b90000014100f2bf9f003d
:10392c00040037003fb89700cfb89700e0bf9f0066
:10393c00f1bf9f006fb99700ffb9970082bf9f003e
:10394c0093bf9f000043eb008002eb000002eb00f2
:10395c00dfb897000fb997009fb997002fb8970061
:10396c00540d07000080fa00000006001400fa0055
:10397c0080bf9f0092bf9f00a3bf9f00b1bf9f005d
:10398c00c4bf9f00d5bf9f000fb897001040900098
:10399c000004e00011003a000fb8970010089000e6
:1039ac006102b800840078001fb897000009b800c5
:1039bc00e2bf9f00f3bf9f002fb8970000a0b90093
:1039cc007fb99700000141001fb897000580b9002e
:1039dc0000014100f2bf9f00040037001fb89700a0
:1039ec00afb89700e0bf9f00f1bf9f006fb9970081
:1039fc00ffb99700e2b79f00f3b79f000043eb00bd
:103a0c00dfba97004fba9700bfb897006fb1970015
:103a1c00ffb197000fb89700260d07000080fa0041
:103a2c00000006001400fa0080bf9f0092bf9f00a8
:103a3c00a3bf9f00b1bf9f00c4bf9f00d5bf9f0015
:103a4c000fb89700104090000004e00011003a00fd
:103a5c000fb89700100890006102b800840078003d
:103a6c001fb897000009b800e2bf9f00f3bf9f008a
:103a7c002fb8970000a0b9007fb997000001410052
:103a8c001fb897000580b90000014100f2bf9f00ec
:103a9c00040037001fb89700afb89700e0bf9f0035
:103aac00f1bf9f006fb99700ffb99700e2b79f0075
:103abc00f3b79f008043eb000043eb00dfba9700a5
:103acc004fba9700bfb897006fb19700ffb197003e
:103adc000fb89700d40f07000080fa000000060012
:103aec001200fa0080bf9f0091bf9f00a2bf9f00f1
:103afc00e3f79f00c4bf9f00d5bf9f00e6bf9f00a8
:103b0c00f7bf9f000000eb00f0b79f000a003700e2
:103b1c007fb097008fb897004400dd00c005b0005f
:103b2c00810040000040eb00804878007fb0970097
:103b3c000000e800f0b79f00ffb09700e28f500044
:103b4c00f3ff34008fb897000000eb00f0209800d2
:103b5c008fb897000040eb00c05098008fb89700ca
:103b6c000040eb00f07098008fb897001000200018
:103b7c00b00898000fb897006fb99700ffb997007d
:103b8c0052089800630898000fb897002fb197005f
:103b9c00bfb1970072089800031098000fb89700f7
:103bac000fb197009fb19700121098002310980046
:103bbc008fb897000000eb00f01098000fb897003a
:103bcc00ffa99700430898000fb89700cfb897004b
:103bdc00011898000fb897001fb997003210980081
:103bec000fb89700afb99700431098000fb8970023
:103bfc00eff09700216898000fb897005fb9970015
:103c0c00621098000fb89700160007000fb89700c5
:103c1c00700990000fb89700700890009000780021
:103c2c000fb8970000109000008070000009780019
:103c3c000fb89700101190000fb89700101090005b
:103c4c00900078000fb89700201090000080ea00d8
:103c5c0000806000000978000000eb000080fa0092
:103c6c00000006000200fa00f0bf9f007fb897002a
:103c7c003010900090007800f0ff27009108600051
:103c8c007fb897003010900090007800000024005e
:103c9c00910870007fb89700301090009000780069
:103cac00f0ff2d00910860007fb897003010900055
:103cbc0090007800f0ff2e00910860007fb897000c
:103ccc003010900090007800f07f2f009108600079
:103cdc007fb897003010900010007800f1fc2f0096
:103cec00108860001040a0007fb897003010900042
:103cfc00c00090007fb89700206890000074a1006d
:103d0c000081fb00f00720000001610000f82f008b
:103d1c0091086000910871007fb8970030109000f6
:103d2c00b000900080242000800878007fb89700b5
:103d3c0030109000100190007fb897006010900038
:103d4c0080007800000024000080500000097800fa
:103d5c007fb8970030109000200190007fb897003a
:103d6c00601090008000780000002400008050005b
:103d7c00000978007fb89700301090001000780090
:103d8c00c1ff2f00108860001000a0007fb89700c2
:103d9c0030109000d0009000f01f200080087800b8
:103dac007fb8970030109000600190007fb89700aa
:103dbc003010900060009000900078007fb8970061
:103dcc0030109000700090000080ea0000806000cd
:103ddc00000978007fb8970030109000000990001f
:103dec007fb8970030109000000890009000780089
:103dfc007fb8970030109000100890000080ea0007
:103e0c0000806000000978007fb897004010900097
:103e1c0090007800f0ff2700910860007fb89700b1
:103e2c004010900090007800000024009108700071
:103e3c007fb897004010900090007800000022009e
:103e4c00910870007fb897004010900090007800a7
:103e5c00f0ff2e00910860007fb897004010900092
:103e6c0090007800f07f2f00910860007fb89700d9
:103e7c004010900090007800f0fc2f00910860003a
:103e8c007fb8970040109000c00090007fb897005a
:103e9c00206890000074a1000081fb00f007200056
:103eac000001610000f82f0091086000910871007a
:103ebc007fb8970040109000b00090008024200044
:103ecc00800878007fb897004010900010007800b0
:103edc00c1ff2f00108860001000a0007fb8970071
:103eec0040109000d0009000f01f20008008780057
:103efc007fb8970040109000600190007fb8970049
:103f0c004010900060009000900078007fb89700ff
:103f1c0040109000700090000080ea00008060006b
:103f2c00000978007fb897004010900000099000bd
:103f3c007fb8970040109000000890009000780027
:103f4c007fb8970040109000100890000080ea00a5
:103f5c0000806000000978000080fa000000060074
:103f6c001e00fa00889fbe00a0bf9f000040eb001f
:103f7c00a0f79f006000b800b0b79f00c1b79f00ca
:103f8c000000eb0090b79f002fb8970070099000cd
:103f9c002fb8970070089000900078002fb8970009
:103fac0000109000008070000009780086d9020093
:103fbc00000000002fb89700500890009000780087
:103fcc002fb8970060089000008060000000e000af
:103fdc000300320030012000d0bf9f00bd07370026
:103fec002fb89700101190002fb897001010900068
:103ffc00900078002fb8970020109000008070007f
:10400c0000097800afb897000040eb0080487800ba
:10401c002fb997006000b80030019800410198005a
:10402c00afb897000040eb0090409800afb89700f5
:10403c000000eb0090089800afb897000040eb0030
:10404c00a0409800afb897000040eb00b04098003b
:10405c00afb897000040eb00c04098002fb9970014
:10406c006000b80050019800610198002fb99700ca
:10407c006000b80070019800010998002fb89700f3
:10408c00700990002fb8970070089000900078008d
:10409c002fb89700001090000080ea0000806000ac
:1040ac0000097800f00f20004012880040c2bf00c9
:1040bc00614060000004e000fcff32004012800010
:1040cc00c0818800f00f20004012880040c2bf0061
:1040dc00614060000004e000fcff320040128000f0
:1040ec00c0818800f00f20004012880040c2bf0041
:1040fc00614060000004e000fcff320040128000d0
:10410c00c0818800f00f20004012880040c2bf0020
:10411c00614060000004e000fcff320040128000af
:10412c00c0818800f00f20004012880040c2bf0000
:10413c00614060000004e000fcff3200401280008f
:10414c00c0818800f00f20004012880040c2bf00e0
:10415c00614060000004e000fcff3200401280006f
:10416c00c0818800f00f20004012880040c2bf00c0
:10417c00614060000004e000fcff3200401280004f
:10418c00c0818800f00f20004012880040c2bf00a0
:10419c00614060000004e000fcff3200401280002f
:1041ac00c0818800f00f20004012880040c2bf0080
:1041bc00614060000004e000fcff3200401280000f
:1041cc00c0818800f00f20004012880040c2bf0060
:1041dc00614060000004e000fcff320040128000ef
:1041ec00c0818800f00f20004012880040c2bf0040
:1041fc00614060000004e000fcff320040128000cf
:10420c00c0818800f00f20004012880040c2bf001f
:10421c00614060000004e000fcff320040128000ae
:10422c00c0818800000420004012880040c2bf00fa
:10423c00614060000004e000fcff3200401280008e
:10424c00c08188000000eb004012880040c2bf0013
:10425c00614060000004e000fcff3200401280006e
:10426c00c08188000000eb004012880040c2bf00f3
:10427c00614060000004e000fcff3200401280004e
:10428c00c08188000000eb004012880040c2bf00d3
:10429c00614060000004e000fcff3200401280002e
:1042ac00c08188000000eb004012880040c2bf00b3
:1042bc00614060000004e000fcff3200401280000e
:1042cc00c0818800500920004012880040c2bf0005
:1042dc00614060000004e000fcff320040128000ee
:1042ec00c0818800ed8057002fb897006c1507002f
:1042fc002fb89700a018900010189000e00f5000f5
:10430c00e08f5800160032002fb89700700990000b
:10431c002fb8970070089000900078002fb8970085
:10432c000010900000807000000978002fb89700f2
:10433c00101190002fb8970010109000900078008a
:10434c002fb89700201090000080ea0000806000d9
:10435c0000097800b2002000d2bf9f00dd063700b4
:10436c003ff09700c8150700b0f79f00f00f200032
:10437c004012880040c2bf00614060000004e000b1
:10438c00fcff320040128000c08188003ff0970093
:10439c00ec4f5000240032008041eb0083ff9f0063
:1043ac002ff09700e24f500002003e0010c0b30007
:1043bc0080ff9f002ff097000040e800a0f79f00bf
:1043cc000ff997000204e000effe3a002fb89700b7
:1043dc00700990002fb8970070089000900078003a
:1043ec002fb8970000109000008070000009780032
:1043fc002fb89700101190002fb897001010900054
:10440c00900078002fb89700201090000080ea00f0
:10441c0000806000000978003ff097000080fb00ee
:10442c00d0bf9f00ab0637008004200040128800ec
:10443c0040c2bf00614060000004e000fcff32009d
:10444c0040128000c08188000000eb004012880000
:10445c0040c2bf00614060000004e000fcff32007d
:10446c0040128000c08188000000eb0040128800e0
:10447c0040c2bf00614060000004e000fcff32005d
:10448c0040128000c081880010002000401288007b
:10449c0040c2bf00614060000004e000fcff32003d
:1044ac0040128000c0818800a00a200040128800c1
:1044bc0040c2bf00614060000004e000fcff32001d
:1044cc0040128000c08188007008200040128800d3
:1044dc0040c2bf00614060000004e000fcff3200fd
:1044ec0040128000c0818800ed8057002fb89700e3
:1044fc00eb1407002fb89700a0189000101890002c
:10450c00e00f5000e08f5800160032002fb89700d3
:10451c00700990002fb897007008900090007800f8
:10452c002fb89700001090000080700000097800f0
:10453c002fb89700101190002fb897001010900012
:10454c00900078002fb89700201090000080ea00af
:10455c000080600000097800b3002000d3bf9f00ea
:10456c005c0637003ff0970047150700b0f79f0037
:10457c003ff09700e84f50000c003a002fb897001e
:10458c0001c1b30001487800f00f200040128800f0
:10459c0040c2bf00614060000004e000fcff32003c
:1045ac0040128000c0818800620037002fb897004d
:1045bc0001c2b30001487800f00f200040128800bf
:1045cc0040c2bf00614060000004e000fcff32000c
:1045dc0040128000b0f79f00f00f200040128800be
:1045ec0040c2bf00614060000004e000fcff3200ec
:1045fc0040128000b0f79f00f00f2000401288009e
:10460c0040c2bf00614060000004e000fcff3200cb
:10461c0040128000b0f79f003ff097000080fb0035
:10462c006f006000e10f500002003200100020000b
:10463c0090b79f00f00f20004012880040c2bf00ce
:10464c00614060000004e000fcff3200401280007a
:10465c00b0f79f00bff09700a0cab30080cf500006
:10466c000b0032002fb89700700990002fb89700fc
:10467c0070089000900078002fb897000010900000
:10468c000080700000097800a000200090b79f0007
:10469c00f00f20004012880040c2bf006140600053
:1046ac000004e000fcff320040128000b0f79f00d5
:1046bc00f00f20004012880040c2bf006140600033
:1046cc000004e000fcff320040128000c081880032
:1046dc001fb097000000e000160032002fb89700c2
:1046ec00700990002fb89700700890009000780027
:1046fc002fb897000010900000807000000978001f
:10470c002fb89700101190002fb897001010900040
:10471c00900078002fb89700201090000080ea00dd
:10472c0000806000000978001fb09700d0bf9f0088
:10473c00e8053700700720004012880040c2bf0017
:10474c00614060000004e000fcff32004012800079
:10475c00c08188000000eb004012880040c2bf00fe
:10476c00614060000004e000fcff32004012800059
:10477c00c08188000000eb004012880040c2bf00de
:10478c00614060000004e000fcff32004012800039
:10479c00c08188000000eb004012880040c2bf00be
:1047ac00614060000004e000fcff32004012800019
:1047bc00c08188000000eb004012880040c2bf009e
:1047cc00614060000004e000fcff320040128000f9
:1047dc00c0818800500920004012880040c2bf00f0
:1047ec00614060000004e000fcff320040128000d9
:1047fc00c0818800ed8057002fb89700281407005f
:10480c002fb89700a018900010189000e00f5000df
:10481c00e08f5800160032002fb8970070099000f6
:10482c002fb8970070089000900078002fb8970070
:10483c000010900000807000000978002fb89700dd
:10484c00101190002fb89700101090009000780075
:10485c002fb89700201090000080ea0000806000c4
:10486c0000097800b2002000d2bf9f0099053700e4
:10487c00f00f20004012880040c2bf006140600071
:10488c000004e000fcff320040128000c081880070
:10489c003ff097000080fb004200de0061006000ea
:1048ac000004e000160032002fb897007009900049
:1048bc002fb8970070089000900078002fb89700e0
:1048cc000010900000807000000978002fb897004d
:1048dc00101190002fb897001010900090007800e5
:1048ec002fb89700201090000080ea000080600034
:1048fc000009780023002000d3bf9f007505370006
:10490c00900620004012880040c2bf006140600049
:10491c000004e000fcff320040128000c0818800df
:10492c00000520004012880040c2bf0061406000ba
:10493c000004e000fcff320040128000c0818800bf
:10494c000000eb004012880040c2bf0061406000d4
:10495c000004e000fcff320040128000c08188009f
:10496c000000eb004012880040c2bf0061406000b4
:10497c000004e000fcff320040128000c08188007f
:10498c000000eb004012880040c2bf006140600094
:10499c000004e000fcff320040128000c08188005f
:1049ac00500920004012880040c2bf0061406000e6
:1049bc000004e000fcff320040128000c08188003f
:1049cc00ed8057002fb89700b51307002fb897004c
:1049dc00a018900010189000e00f5000e08f5800c5
:1049ec00160032002fb89700700990002fb897006e
:1049fc0070089000900078002fb89700001090007d
:104a0c0000807000000978002fb8970010119000fa
:104a1c002fb8970010109000900078002fb89700d6
:104a2c00201090000080ea000080600000097800ef
:104a3c00b0002000d0bf9f00260537003ff0970044
:104a4c000080fb004200de00610060000004e0001a
:104a5c00020032002000200090b79f00f00f2000d1
:104a6c004012880040c2bf00614060000004e000ba
:104a7c00fcff320040128000c08188001fb09700fc
:104a8c000000e000160032002fb89700700990006b
:104a9c002fb8970070089000900078002fb89700fe
:104aac000010900000807000000978002fb897006b
:104abc00101190002fb89700101090009000780003
:104acc002fb89700201090000080ea000080600052
:104adc00000978001fb19700d2bf9f00fd0437007a
:104aec003ff097000080fb00610060000004e000d4
:104afc0010ff3a00a00720004012880040c2bf00ff
:104b0c00614060000004e000fcff320040128000b5
:104b1c00c08188000000eb004012880040c2bf003a
:104b2c00614060000004e000fcff32004012800095
:104b3c00c08188000000eb004012880040c2bf001a
:104b4c00614060000004e000fcff32004012800075
:104b5c00c08188000000eb004012880040c2bf00fa
:104b6c00614060000004e000fcff32004012800055
:104b7c00c08188000000eb004012880040c2bf00da
:104b8c00614060000004e000fcff32004012800035
:104b9c00c0818800500920004012880040c2bf002c
:104bac00614060000004e000fcff32004012800015
:104bbc00c0818800ed8057002fb89700381307008c
:104bcc002fb89700a018900010189000e00f50001c
:104bdc00e08f5800160032002fb897007009900033
:104bec002fb8970070089000900078002fb89700ad
:104bfc000010900000807000000978002fb897001a
:104c0c00101190002fb897001010900090007800b1
:104c1c002fb89700201090000080ea000080600000
:104c2c0000097800b3002000d3bf9f00a90437000f
:104c3c003ff0970094130700b0f79f003ff09700e8
:104c4c000004e000170032002fb8970070099000a4
:104c5c002fb8970070089000900078002fb897003c
:104c6c000010900000807000000978002fb89700a9
:104c7c00101190002fb89700101090009000780041
:104c8c002fb89700201090000080ea000080600090
:104c9c00000978003ff097000080fb00d0bf9f0018
:104cac008c043700f00f20004012880040c2bf0077
:104cbc00614060000004e000fcff32004012800004
:104ccc00b0f79f003ff097000080fb004600de002d
:104cdc00e14060002fb8970011409800f00f2000c1
:104cec004012880040c2bf00614060000004e00038
:104cfc00fcff320040128000b0f79f003ff097009d
:104d0c008080fb0000032000008060000000e000b9
:104d1c0016003a002fb89700700990002fb8970032
:104d2c0070089000900078002fb897000010900049
:104d3c0000807000000978002fb8970010119000c7
:104d4c002fb8970010109000900078002fb89700a3
:104d5c00201090000080ea000080600000097800bc
:104d6c0010002000d0bf9f005a043700f00f200025
:104d7c004012880040c2bf00614060000004e000a7
:104d8c00fcff320040128000b0f79f00f00f2000b3
:104d9c004012880040c2bf00614060000004e00087
:104dac00fcff320040128000b0f79f00f00f200093
:104dbc004012880040c2bf00614060000004e00067
:104dcc00fcff320040128000c0818800900420005b
:104ddc004012880040c2bf00614060000004e00047
:104dec00fcff320040128000c08188000000eb0004
:104dfc004012880040c2bf00614060000004e00027
:104e0c00fcff320040128000c08188000000eb00e3
:104e1c004012880040c2bf00614060000004e00006
:104e2c00fcff320040128000c08188000000eb00c3
:104e3c004012880040c2bf00614060000004e000e6
:104e4c00fcff320040128000c08188000000eb00a3
:104e5c004012880040c2bf00614060000004e000c6
:104e6c00fcff320040128000c081880050092000f5
:104e7c004012880040c2bf00614060000004e000a6
:104e8c00fcff320040128000c0818800ed8057008a
:104e9c002fb89700821207002fb89700a018900027
:104eac0010189000e00f5000e08f580016003200f0
:104ebc002fb89700700990002fb8970070089000d9
:104ecc00900078002fb897000010900000807000c0
:104edc00000978002fb89700101190002fb8970098
:104eec0010109000900078002fb8970020109000c0
:104efc000080ea000080600000097800b200200009
:104f0c00d2bf9f00f30337003ff09700de1207007b
:104f1c00b0f79f003ff097000004e0001f00320044
:104f2c00f00f20004012880040c2bf0061406000ba
:104f3c000004e000fcff320040128000c0818800b9
:104f4c002fb89700700990002fb897007008900048
:104f5c00900078002fb8970000109000008070002f
:104f6c00000978002fb89700101190002fb8970007
:104f7c0010109000900078002fb89700201090002f
:104f8c000080ea0000806000000978003ff0970084
:104f9c000080fb00d0bf9f00ce0337002fb89700d6
:104fac007c11070080b79f000fb097000000e00055
:104fbc00030032008fb19700d3bf9f00c5033700a9
:104fcc002fb89700a018900010189000e00f500018
:104fdc00e08f5800160032002fb89700700990002f
:104fec002fb8970070089000900078002fb89700a9
:104ffc000010900000807000000978002fb8970016
:10500c00101190002fb897001010900090007800ad
:10501c002fb89700201090000080ea0000806000fc
:10502c0000097800b0002000d0bf9f00a903370012
:10503c00f00f20004012880040c2bf0061406000a9
:10504c000004e000fcff320040128000b0f79f002b
:10505c00f00f20004012880040c2bf006140600089
:10506c000004e000fcff3200401280008040780019
:10507c002fb8970021409800f00f200040128800b4
:10508c0040c2bf00614060000004e000fcff320041
:10509c0040128000804078002fb897003140980073
:1050ac00f00f20004012880040c2bf006140600039
:1050bc000004e000fcff320040128000b0f79f00bb
:1050cc00f00f20004012880040c2bf006140600019
:1050dc000004e000fcff320040128000b0f79f009b
:1050ec00f00f20004012880040c2bf0061406000f9
:1050fc000004e000fcff320040128000b0f79f007b
:10510c003ff097006f40600090f79f00f00f200079
:10511c004012880040c2bf00614060000004e00003
:10512c00fcff320040128000b0f79f002fb89700b0
:10513c00104090000004e00007003a003ff0970098
:10514c000080fb00630060004a00dd0001002000cd
:10515c00b0b79f00c1b79f00f00f2000401288002d
:10516c0040c2bf00614060000004e000fcff320060
:10517c0040128000b0f79f002fb8970010409000ad
:10518c000004e0000b003a003ff097000080fb00a9
:10519c004200dd006101b8003fb09700cfb097002e
:1051ac000200700083807000b0b79f00c1b79f00f1
:1051bc000e0037003ff09700f043b200b0f79f00ad
:1051cc003ff097000080fb0001002000c001dd00d3
:1051dc00020020003fb09700cfb097000200700093
:1051ec0083807000b0b79f00c1b79f00f00f200004
:1051fc004012880040c2bf00614060000004e00023
:10520c00fcff320040128000b0f79f002fb89700cf
:10521c00104090000004e00007003a003ff09700b7
:10522c000080fb007c0060004280de008040780043
:10523c002fb89700414098002fb89700104090006d
:10524c000004e00011003a003ff097008080fb0062
:10525c00000c2000008060004600de006101b800f8
:10526c003fb09700cfb097000200700083807000b1
:10527c00b0b79f00c1b79f003ff09700634060003c
:10528c000040400080f79f000d0037003ff0970072
:10529c000080fb00010020004809dd00c801de0091
:1052ac00830171004801dd003fb09700cfb097003b
:1052bc000200700083807000b0b79f00c1b79f00e0
:1052cc00f00f20004012880040c2bf006140600017
:1052dc000004e000fcff320040128000b0f79f0099
:1052ec002fb89700104090000004e00009003a002d
:1052fc003ff097000080fb0063006000000040005e
:10530c00804078000ff0970000c0700080f79f007d
:10531c00090037003ff097000081fb0003002000dc
:10532c003fb09700cfb097000200700083807000f0
:10533c00b0b79f00c1b79f00f00f2000401288004b
:10534c0040c2bf00614060000004e000fcff32007e
:10535c0040128000b0f79f002fb8970010409000cb
:10536c000004e0000d003a003ff097008080fb0045
:10537c0000082000008060004700de0080407800bc
:10538c000ff097000140700080f79f003ff09700ee
:10539c00f043b20000404000f0ef9f00f00f2000ff
:1053ac004012880040c2bf00614060000004e00071
:1053bc00fcff320040128000b0f79f002fb897001e
:1053cc00104090000004e00007003a003ff0970006
:1053dc000080fb004700de00804078007fe89700eb
:1053ec0001407000f0ef9f00f00f20004012880089
:1053fc0040c2bf00614060000004e000fcff3200ce
:10540c0040128000b0f79f00f00f2000401288007f
:10541c0040c2bf00614060000004e000fcff3200ad
:10542c0040128000b0f79f00f00f2000401288005f
:10543c0040c2bf00614060000004e000fcff32008d
:10544c0040128000b0f79f00f00f2000401288003f
:10545c0040c2bf00614060000004e000fcff32006d
:10546c0040128000b0f79f00f00f2000401288001f
:10547c0040c2bf00614060000004e000fcff32004d
:10548c0040128000b0f79f00f00f200040128800ff
:10549c0040c2bf00614060000004e000fcff32002d
:1054ac0040128000b0f79f00f00f200040128800df
:1054bc0040c2bf00614060000004e000fcff32000d
:1054cc0040128000c08188002fb8970070099000ae
:1054dc002fb8970070089000900078002fb89700b4
:1054ec0000109000008070000009780041e2a900d3
:1054fc002124200091407800c0cfb30000c0600090
:10550c000014a00042e2b70042c2bf00c041b30089
:10551c0042e2b70041e2a8002fb897007009900052
:10552c002fb8970070089000900078002fb8970063
:10553c00001090000080ea000080600000097800f4
:10554c00f00f20004012880040c2bf006140600094
:10555c000004e000fcff320040128000c081880093
:10556c00f00f20004012880040c2bf006140600074
:10557c000004e000fcff320040128000c081880073
:10558c002fb89700104090000004e00032003a0061
:10559c001ff097000080fb008000e9002000200035
:1055ac000100dd00800078002fb8970011089800ea
:1055bc000ff097000080fb008000e8002000200026
:1055cc000100dd00a0b79f003fb09700cfb097005f
:1055dc0061044000e08448002fb097006103b800dc
:1055ec008800780006007800000ab80007c0b900ef
:1055fc00050178000001410009b0b900000141002b
:10560c0082027800d4b79f00e5b79f002fb89700af
:10561c005fb19700efb197003200980043009800fb
:10562c007fe897000080fb000000e800cf80de00e0
:10563c002fb9970050019800610198002fb897007e
:10564c00e0009000500090002fb997007001980076
:10565c0001099800100037003fb09700cfb09700b9
:10566c004a09dd00c601de00830171004a01dd003c
:10567c000040200001002000020040008380480010
:10568c002fb997003001980041019800afb89700ee
:10569c0000202000900898002fb8970090407800c8
:1056ac0000c2b30080cf5000f5013a007007200013
:1056bc004012880040c2bf00614060000004e0005e
:1056cc00fcff320040128000c08188000000eb001b
:1056dc004012880040c2bf00614060000004e0003e
:1056ec00fcff320040128000c08188000000eb00fb
:1056fc004012880040c2bf00614060000004e0001e
:10570c00fcff320040128000c08188000000eb00da
:10571c004012880040c2bf00614060000004e000fd
:10572c00fcff320040128000c08188000000eb00ba
:10573c004012880040c2bf00614060000004e000dd
:10574c00fcff320040128000c0818800500920000c
:10575c004012880040c2bf00614060000004e000bd
:10576c00fcff320040128000c0818800ed805700a1
:10577c002fb897004a1007002fb89700a018900078
:10578c0010189000e00f5000e08f58001600320007
:10579c002fb89700700990002fb8970070089000f0
:1057ac00900078002fb897000010900000807000d7
:1057bc00000978002fb89700101190002fb89700af
:1057cc0010109000900078002fb8970020109000d7
:1057dc000080ea000080600000097800b30020001f
:1057ec00d3bf9f00bb013700f00f20004012880090
:1057fc0040c2bf00614060000004e000fcff3200ca
:10580c0040128000c08188003ff097000080fb00b0
:10581c004200de00610060000004e000160032006f
:10582c002fb89700700990002fb89700700890005f
:10583c00900078002fb89700001090000080700046
:10584c00000978002fb89700101190002fb897001e
:10585c0010109000900078002fb897002010900046
:10586c000080ea0000806000000978002000200021
:10587c00d0bf9f0097013700d00420004012880051
:10588c0040c2bf00614060000004e000fcff320039
:10589c0040128000c08188000000eb00401288009c
:1058ac0040c2bf00614060000004e000fcff320019
:1058bc0040128000c08188000000eb00401288007c
:1058cc0040c2bf00614060000004e000fcff3200f9
:1058dc0040128000c08188000000eb00401288005c
:1058ec0040c2bf00614060000004e000fcff3200d9
:1058fc0040128000c08188000000eb00401288003c
:10590c0040c2bf00614060000004e000fcff3200b8
:10591c0040128000c081880050092000401288008d
:10592c0040c2bf00614060000004e000fcff320098
:10593c0040128000c0818800ed8057002fb897007e
:10594c00d70f07002fb89700a018900010189000e0
:10595c00e00f5000e08f5800160032002fb897006f
:10596c00700990002fb89700700890009000780094
:10597c002fb897000010900000807000000978008c
:10598c002fb89700101190002fb8970010109000ae
:10599c00900078002fb89700201090000080ea004b
:1059ac000080600000097800b2002000d2bf9f0088
:1059bc00480137003ff0970033100700b0f79f0005
:1059cc003ff097000004e0001f003200f00f2000b1
:1059dc004012880040c2bf00614060000004e0003b
:1059ec00fcff320040128000c08188002fb8970065
:1059fc00700990002fb89700700890009000780004
:105a0c002fb89700001090000080700000097800fb
:105a1c002fb89700101190002fb89700101090001d
:105a2c00900078002fb89700201090000080ea00ba
:105a3c0000806000000978003ff097000080fb00b8
:105a4c00d0bf9f00230137002fb89700d10e07005d
:105a5c00f0af9f00ffa997000300e00003003200a5
:105a6c007fa89700d0bf9f001a0137002fb897006e
:105a7c00a018900010189000e00f5000e08f580014
:105a8c00160032002fb89700700990002fb89700bd
:105a9c0070089000900078002fb8970000109000cc
