:020000040000fa
:080000000002040000000000f2
:020000040000fa
:100400000fcd20000eff27000e0188000000000025
:100410000c00070020cf260001002000110007007b
:10042000000020000000e000020032000000020096
:10043000000000004e6a0200000000000040da00e8
:100440000000fe004440a900a01220000000e000cf
:100450000300320000002000a00188004440a800f2
:100460000000060091018800800078000000eb0089
:1004700015003700e280400032a0b4009101ba00bc
:10048000e280400032a0b4009102ba00e280400055
:1004900032a0b4000002eb00472bde00f507b200eb
:1004a000602ce10004003a000059eb008301e900f0
:1004b000fdff3e00040037006128e100010032002a
:1004c0000082eb00040007001101ba000200e00006
:1004d000e8ff3a00000006003159ba008301e90044
:1004e0000c0032002159ba008301e90008003200f3
:1004f0000400e00003003a00e280400032a0b400b3
:10050000f5ff370011d9ba008301e900faff3a007c
:100510008100e800e180400032a0b4000000060045
:100520000e3e040000000000be3e0400000000007b
:10053000023e040000000000643e040000000000d1
:10054000143f040000000000ea3d04000000000029
:100550004a0f0400000000000040da000000fe0026
:10056000800078001106b100030035009101b10050
:1005700001003c000050a100000006006022b8000d
:10058000060220000000d0008180d2000482d20048
:100590008582d2000000a0000202520083825a002d
:1005a000030031000202420083824a000000a100e1
:1005b0000603e900f3ff3a0000000600efff070022
:1005c0000400be0000000600800078003004e00057
:1005d000feff3a00010050000000e90000000600a4
:1005e0008001eb000200370061f079008301e80030
:1005f000828f5100fcff3a00000006001041780095
:10060000814f5100040032000000e8000204e000c5
:10061000faff3a000000eb000000060080017800bd
:100620000001780031407800005978000004e000b3
:10063000fcff3a0003007800000006000400fa0006
:10064000e0bf9f00e4815700812978000002eb00a1
:100650000f0037006fb89700904078007fb8970080
:10066000104078000402e80080cf500004003200ff
:100670008180fb000080fb000080500007003700f5
:100680006fb897000000e800e0bf9f009309e80002
:10069000820f5200efff3a000000eb000080fa00ea
:0406a0000000060050
:020000040000fa
:0200000401f009
:04000c007bff000076
:020000040000fa
:0200000401f009
:04001000b9ff000034
:020000040000fa
:0200000401f009
:040014007fff00006a
:020000040000fa
:0200000401f009
:04001800ffff0000e6
:020000040000fa
:10000800ac020000ac020000206c0000ac02000052
:10001800ac020000ac020000ac020000ac02000020
:10002800ac020000ac020000ac020000ac02000010
:10003800ac020000ac020000ac020000ac02000000
:10004800ac020000ac020000ac020000ac020000f0
:10005800ac020000ac020000286a0000ac020000fc
:10006800ac020000ac020000ac020000ac020000d0
:10007800ac020000ac020000ac020000ac020000c0
:10008800ac020000ac020000ac020000ac020000b0
:10009800ac020000ac020000ac020000ac020000a0
:1000a800ac020000ac020000ac020000ac02000090
:1000b800ac020000ac020000ac020000ac02000080
:1000c800ac020000ac020000ac020000ac02000070
:1000d800ac020000ac020000ac020000ac02000060
:1000e800ac020000ac020000ac020000ac02000050
:1000f800ac020000ac020000ac020000ac02000040
:10010800ac020000ac020000ac020000ac0200002f
:10011800ac020000ac020000ac020000ac0200001f
:10012800ac020000ac020000ac020000ac0200000f
:10013800ac020000ac020000ac020000ac020000ff
:10014800ac020000ac020000ac020000ac020000ef
:10015800ac020000ac020000ac020000ac020000df
:10016800ac020000ac020000ac020000ac020000cf
:10017800ac020000ac020000ac020000ac020000bf
:10018800ac020000ac020000ac020000ac020000af
:10019800ac020000ac020000ac020000ac0200009f
:1001a800ac020000ac020000ac020000ac0200008f
:1001b800ac020000ac020000ac020000ac0200007f
:1001c800ac020000ac020000ac020000ac0200006f
:1001d800ac020000ac020000ac020000ac0200005f
:1001e800ac020000ac020000ac020000ac0200004f
:0801f800ac020000ac020000a3
:020000040000fa
:10020800ac020000ac020000206c0000ac02000050
:10021800ac020000ac020000ac020000ac0200001e
:10022800ac020000ac020000ac020000ac0200000e
:10023800ac020000ac020000ac020000ac020000fe
:10024800ac020000ac020000ac020000ac020000ee
:10025800ac020000ac020000286a0000ac020000fa
:10026800ac020000ac020000ac020000ac020000ce
:10027800ac020000ac020000ac020000ac020000be
:10028800ac020000ac020000ac020000ac020000ae
:10029800ac020000ac020000ac020000ac0200009e
:1002a800ac020000ac020000ac020000ac0200008e
:1002b800ac020000ac020000ac020000ac0200007e
:1002c800ac020000ac020000ac020000ac0200006e
:1002d800ac020000ac020000ac020000ac0200005e
:1002e800ac020000ac020000ac020000ac0200004e
:1002f800ac020000ac020000ac020000ac0200003e
:10030800ac020000ac020000ac020000ac0200002d
:10031800ac020000ac020000ac020000ac0200001d
:10032800ac020000ac020000ac020000ac0200000d
:10033800ac020000ac020000ac020000ac020000fd
:10034800ac020000ac020000ac020000ac020000ed
:10035800ac020000ac020000ac020000ac020000dd
:10036800ac020000ac020000ac020000ac020000cd
:10037800ac020000ac020000ac020000ac020000bd
:10038800ac020000ac020000ac020000ac020000ad
:10039800ac020000ac020000ac020000ac0200009d
:1003a800ac020000ac020000ac020000ac0200008d
:1003b800ac020000ac020000ac020000ac0200007d
:1003c800ac020000ac020000ac020000ac0200006d
:1003d800ac020000ac020000ac020000ac0200005d
:1003e800ac020000ac020000ac020000ac0200004d
:0803f800ac020000ac020000a1
:020000040000fa
:1006a4005c6600006c640000720000005c6800007e
:1006b400657900002e74000078740000005c00006e
:1006c40062790000652e0000747800007400000058
:1006d4005c4d0000792000004c6f00006e67000044
:1006e40020460000696c0000656e0000616d00002a
:1006f40065200000466f00006c6400006572000015
:100704005c680000656c00006c6f00002e740000d3
:1007140078740000005c00004d5900004c4f00004c
:100724004e4700007e3100005c680000656c0000ec
:100734006c6f00002e740000787400000048000004
:10074400656c00006c6f0000205700006f720000a1
:100754006c6400002e000000476f00006f6400000e
:100764006279000065200000437200007565000096
:100774006c200000576f0000726c0000642e0000b3
:1007840000000000222a00002b2c00002e2f000065
:100794003a3b00003c3d00003e3f00005b5c000033
:1007a4005d7c0000d020000000000000000000007c
:1007b400a87f00000000000002000000000000000c
:1007c4000400000004000000000000000800000015
:1007d40008000000000000001000000010000000ed
:1007e40000000000200000002000000000000000c5
:1007f4004000000040000000ffff0000ffff000079
:1008040000000000280400000100000000000000b7
:1008140000200000080000000100000000000000ab
:1008240000010000080000000000000000020000b9
:100834001000000000000000000400002000000080
:10084400ffff0000ffff000040000000524f0000c7
:100854004f540000000000008003000084030000e7
:100864008603000088030000820300008a0300005e
:10087400840000001000000094000000100000003c
:10088400a600000007000000040000008c03000024
:100894009003000092030000940300008e03000004
:1008a4009603000084000000004000009400000053
:1008b40000400000aa000000000700000e00000035
:1008c400980300009c0300009e030000a0030000a6
:1008d4009a030000a203000086000000000100004b
:1008e4009600000000010000b000000007000000b6
:0408f4000e000000f2
:020000040000fa
:1008f8001600fa00889fbe008a9fbe008c9fbe002b
:1009080020079800310798002e009000be00900044
:10091800010898002e009000000890001002900036
:100928002e00900081032000808040002e0090005f
:1009380000089000100078006011b8000400010061
:10094800100798001e0090000000e000030032002d
:1009580022002000220f9800430137002e0090004b
:100968008003b000000f78009e00780011509000be
:100978000081fb00215090000080fb004800dd0052
:10098800020070000000e0001d0032009e007800a8
:10099800115090000081fb00215090000080fb0066
:1009a8004800dd0002007000c501dd009e007800ef
:1009b800314890000081fb00414890000080fb0016
:1009c8004800dd0002007000008041008001e9005d
:1009d8009e007800314890000081fb00414890005b
:1009e8000080fb004800dd00020070000001780074
:1009f800110009008281d800100f9800020037000a
:100a08008001eb00130f98002e0090009e089000c4
:100a1800611098009e007800615090000081fb00f2
:100a2800715090000080fb004800dd00020070005b
:100a38000000e0000b0032009e007800615090003a
:100a48000081fb00715090000080fb004800dd0031
:100a5800020070006101b80072079800030f980047
:100a68000f0037009e007800416090000081fb0075
:100a7800516090000080fb004800dd00020070001b
:100a880070079800616090000081fb007160900021
:100a98000080fb004800dd0002007000000f980095
:100aa8002e0090007e0190008e0990002208980088
:100ab800330898009e007800315090000081fb00b8
:100ac800415090000080fb004800dd0002007000eb
:100ad8000000e0000b0032009e00780031509000ca
:100ae8000081fb00415090000080fb004800dd00c1
:100af800020070006101b80052079800630798006f
:100b08000f0037009e007800016090000081fb0014
:100b1800116090000080fb004800dd0002007000ba
:100b280050079800216090000081fb003160900020
:100b38000080fb004800dd0002007000600798009c
:100b48002e0090005e019000ee01900002109800c7
:100b5800131098002e009000001690009016900038
:100b68009e007800614890000081fb007148900069
:100b78000080fb004800dd00020070006105b8003d
:100b88001e007800005090000084fb00090020003f
:100b98002e009000200b9000b00b90008800780089
:100ba80006007800000ab80007c0b90005017800ff
:100bb8000001410009b0b90000014100820278003b
:100bc8000a0142008b814a002e00900060109000bc
:100bd8000100200002004000838048000000560009
:100be80081805e002e01900020119800311198003c
:100bf8002e00900000129000901290001e007800c5
:100c0800504890000081fb00030020000400be0053
:100c180058fe07002e0190004011980051119800cd
:100c28002e00900040119000d011900040ff20004d
:100c380001002000800f5100818f590010003600fc
:100c48002e00900040119000d011900040ff2f001e
:100c580001002000800f5100818f590003003e00e1
:100c680013c0b300034f98000200370020c0b30040
:100c7800004f98008e489000114f980002003700ee
:100c88000041eb00124f98002e0090009e49900002
:100c9800734898009e007800614890000081fb002e
:100ca800714890000080fb004800dd0002007000e1
:100cb8006105b8001e007800005090000084fb0019
:100cc800090020002e009000200b9000b00b90002f
:100cd8008800780006007800000ab80007c0b9004c
:100ce800050178000001410009b0b9000001410088
:100cf800820278000a0142008b814a002e0090008f
:100d0800601090000100200002004000838048002d
:100d18002e01900060099800710998009e007800e3
:100d2800716090000082fb00016890000080fb0069
:100d38004800dd0004007000000178001168900090
:100d48000082fb00216890000080fb004800dd0065
:100d580004007000800178002e0090000288be0018
:100d68009e007800614890000081fb007148900067
:100d78000080fb004800dd00020070008000780061
:100d88002e009000711098009e0078003148900065
:100d98000081fb00414890000080fb004800dd0016
:100da80002007000800078002e0090000118980062
:100db8001e007800504890008080fb002e009000b4
:100dc800111898001e007800805090002e009000a6
:100dd80021509800b00220009e0040002e00900094
:100de800640040000a00090031587800b000b100e2
:100df800b100b1002e00900070489000e24f500002
:100e080013003a009e007800416890000082fb00c1
:100e1800516890000080fb004800dd00040070006d
:100e280000017800616890000082fb007168900002
:100e38000080fb004800dd0004007000800178009d
:100e48002e009000420898005308980004003700cc
:100e58002e0190006000b8004009980051099800e0
:100e68008000eb00210f98002e0890004f06be006e
:100e78004f05be004f04be000080fa0000000600c7
:100e88005a00fa00889fbe008a9fbe00002f980073
:100e9800112f980042d79800332f98003e289000d1
:100ea800000f78001e2890000000e00016003200b5
:100eb800640147009e2890000e289000cd07070087
:100ec800100798001e0090000000e00003003200a8
:100ed8009e009000412f98007b003700c20420003c
:100ee8009e00410064004700c002b0008101780004
:100ef8004ed19000800078000e289000d60e070092
:100f08001007980008003700c10420001e80400028
:100f1800800178000041eb008000eb000e28900073
:100f2800cd0e0700100798001e0090000000e0009a
:100f3800030032001e019000422f98006200370023
:100f48001e007800302890000000e00006003a00fb
:100f58009e0078000040eb00804878000000eb001d
:100f6800402f9800580037001e007800b0289000e5
:100f78001e007800d20007001e007800902890001c
:100f880000289000e00f5000e08f58001e003a0043
:100f98000e289000701090006105b8000e2890008f
:100fa800205090000084fb00090020000e289000cb
:100fb800200b9000b00b90008800780006007800a5
:100fc800000ab80007c0b900050178000001410017
:100fd80009b0b90000014100820278000a0142000c
:100fe8008b814a001e0078007020900001002000cc
:100ff80002004000838048001e01780030119800ec
:10100800411198001e0037001e00780090289000bb
:101018000028900062045000e08458000e289000d8
:10102800101890006102b800880078000400780069
:10103800000bb80005c0b9000701780000014100a5
:1010480009a0b90000014100820378000e28900031
:10105800f008900060089000060140008781480071
:101068001e0078007020900001002000020040005f
:10107800838048001e0178003011980041119800c3
:101088001e0078003028900080007800820520003b
:101098001e004100808050001e007800511098000a
:1010a8001e007800b02890001e007800c002b00032
:1010b8001f000900315878000002b1000102b10098
:1010c8000000eb00402f98004e2890004f05be000e
:1010d8004f04be000080fa00000006000a00fa0073
:1010e800889fbe008a9fbe0020079800310798009d
:1010f8003e009000000f7800c20420009e004100ce
:101108002e009000b2100700100798001e009000f3
:101118000000e000030032001e0090004007980025
:10112800620037001e007800302890000000e000c0
:1011380006003a009e0078000040eb0080487800e6
:101148000001eb0042079800580037001e007800a5
:10115800b02890001e007800590007001e00780093
:101168009028900000289000e00f5000e08f580071
:101178001e003a002e009000701090006105b80023
:101188002e009000205090000084fb0009002000f1
:101198002e009000200b9000b00b90008800780083
:1011a80006007800000ab80007c0b90005017800f9
:1011b8000001410009b0b900000141008202780035
:1011c8000a0142008b814a001e00780070209000be
:1011d8000100200002004000838048001e017800c2
:1011e80030119800411198001e0037001e00780049
:1011f800902890000028900062045000e084580075
:101208002e009000101890006102b8008800780045
:1012180004007800000bb80005c0b9000701780089
:101228000001410009a0b9000001410082037800d3
:101238002e009000f0089000600890000601400021
:10124800878148001e00780070209000010020006f
:1012580002004000838048001e0178003011980089
:10126800411198001e007800302890008000780016
:10127800820520001e004100808050001e0078007a
:10128800511098001e007800b02890001e007800c9
:10129800c002b0001f000900315878000002b100f8
:1012a8000102b1000000eb00400798004e009000da
:1012b8004f05be004f04be000080fa000000060083
:1012c8000400fa00000f7800110798009e009000b3
:1012d8001e0078006c1407001e009000b0489000b3
:1012e8001e007800514898009e00900041589000d8
:1012f8000082fb00515890000080fb004800dd0090
:101308000400700000017800615890000082fb0022
:10131800715890000080fb004800dd000400700058
:10132800800178001e007800720098000308980079
:101338009e009000015090000081fb001150900029
:101348000080fb004800dd00020070003e15070029
:101358001e01780010099800210998009e0090004d
:10136800614890000081fb00714890000080fb00fc
:101378004800dd00020070003e1507001e017800dd
:1013880030099800410998009e009000015890008b
:101398000081fb00115890000080fb004800dd0030
:1013a80002007000281507001e01780050099800f7
:1013b800610998009e009000615090000081fb0038
:1013c800715090000080fb004800dd0002007000b2
:1013d800281507001e01780070099800011198006f
:1013e8009e009000215090000081fb003150900039
:1013f8000080fb004800dd000200700012150700a5
:101408001e01780010119800211198001e00780024
:10141800c1022000808040001e0090001f000900cb
:10142800b05878000102b1000002b1000080fa0053
:1014380000000600a401fa00708f99000197990036
:101448000e9091000000e000060032000e9091001e
:101458005bfc070080007800f00f2000808f5000b0
:101468000300360050002000109799005d003700f7
:10147800660147008e9091007e8891005d06070006
:10148800200798002e0090000000e00003003200c2
:101498002e00900010979900520037006600470010
:1014a800104078000004e0004c003a000e909100d3
:1014b80043fc0700100798009e0090000e909100d2
:1014c80000804000000fe9001e007800904078007e
:1014d800c0c5b30080cf500003003a005000200080
:1014e800109799003f0037001e0fe9001e00780092
:1014f80090407800c0c5b30080cf5000faff3a0092
:101508009e0078000e90910000805000100798000f
:10151800e00920000e0040008e9091001e0190000e
:101528002dfc07009e009000e00920000e004000fe
:10153800808040000040eb00804878001e0fe800e3
:10154800220520000e014100e10920008e804000a4
:101558007e88910027060700200798002e0090003b
:101568000000e000030032002e0090001097990060
:101578001c003700200520000e00400010407800b5
:101588000004e00003003a00d00020001097990002
:1015980014003700e6004700200520000e00400038
:1015a800c002b000010378006022b80003c1b30094
:1015b8001e017800800078007e889100bc11070029
:1015c800200798002e0090000000e0000300320081
:1015d8002e0090001097990002003700600020004c
:1015e800109799001e9091000080fa0000000600f4
:1015f800a801fa00708f99000197990022679b0053
:10160800239799000e9091000000e0000600320038
:101618000e909100eafb070080007800f00f200090
:10162800808f50000300360050002000309799004a
:101638006a003700660147008e9091007e8891000d
:10164800ec050700200798002e0090000000e0003d
:10165800030032002e009000309799005f00370099
:1016680066004700104078000004e00055003a008a
:101678002e6093000080fb004400de0061006000e3
:101688000004e0004c0032000e909100ccfb0700f3
:10169800100798009e0090000e9091000080400076
:1016a800000fe9001e00780090407800c0c5b30024
:1016b80080cf500003003a00500020003097990076
:1016c800460037001e0fe9001e00780090407800a1
:1016d800c0c5b30080cf5000faff3a009e007800e2
:1016e8000e9091000080500010079800e00920003b
:1016f8000e0040008e9091001e019000b6fb07007e
:101708009e009000e00920000e004000808040000c
:101718000040eb00804878001e0fe80022052000fa
:101728000e014100e10920008e8040007e88910072
:10173800b0050700200798002e0090000000e00088
:10174800030032002e0090003097990023003700e4
:10175800200520000e004000104078000004e00042
:1017680003003a00d0002000309799001b00370092
:10177800e6004700200520000e004000c002b0002f
:10178800010378006022b8008041eb001e01780058
:10179800800078007e889100451107002007980096
:1017a8002e0090000000e000060032002e0090009d
:1017b8003097990009003700c00020003097990041
:1017c80006003700e6004700ae6193002e919100b5
:1017d8007e88910004000700309799003e909100a0
:1017e8000080fa00000006002000fa00889fbe0072
:1017f8008a9fbe00100f9800210f9800320f9800a2
:10180800035f98002e089000504890000080fb006d
:101818004400de00610060000004e00003003200c4
:10182800b0002000700f98002b0137003e08900090
:101838009e089000010878003e0890008080e8002b
:101848002e08900025000900b0187800c104b100e6
:10185800c004b1002e08900080089000700090002d
:101868003e0990007021980001299800be08900058
:1018780010c0b300c0d898003e0890002005b00002
:10188800800078002e0890003020900080087800b2
:101898003e0890002005b0000080e800600f980026
:1018a8001e08900070489000e24f500004003a0073
:1018b8002e08900000209000500f9800020037007a
:1018c8000001eb00520f98005e089000ee099000ae
:1018d800800978000e5890000080fb004200de006e
:1018e800610060000004e000840032002e089000cf
:1018f80070019000800990001e0890000018900068
:10190800010020000200400083804800610250006e
:10191800e08258001e089000001890006101b8008d
:101928000400be0013fb07006007980071079800c9
:101938001e089000101890006101b8006e00900019
:10194800fe009000800f5100818f59002100310066
:101958001e089000101890006101b8006e009000f9
:10196800fe009000020040008380480061025000a1
:10197800e08258001e089000101890006101b8001d
:101988000400be00fbfa07004007980051079800c2
:101998003e08900022052000000141004e00900002
:1019a8000002e9003e0890002105200080804000e8
:1019b80082017800040178001e089000ea040700fc
:1019c8000004e00003003a0081002000710f980035
:1019d800c10037006e009000fe00900061025000c8
:1019e800e08258001e089000101890006101b800ad
:1019f8000400be00effa07003e0990003029980065
:101a0800412998003e0890004007b0000004780083
:101a18002e08900070029000800a90001e08900026
:101a2800001890006101b8000400be00e1fa070048
:101a3800800044003e089000512898003e0890001d
:101a4800302d9000c02d90003e089000a0289000f6
:101a58001028900062045000e08458001e0890008e
:101a6800101890006102b80088007800040078001f
:101a7800000bb80005c0b90007017800000141005b
:101a880009a0b90000014100820378001e089000f7
:101a9800f008900060089000060040008780480029
:101aa8000a0040008b804800200798003107980002
:101ab8001e08900000089000100290003e08900058
:101ac80041072000808040001e0890000008900018
:101ad800100078002e019000be0190000400010063
:101ae800000f98000e0890000000e0007800320017
:101af80022002000720f9800770037000e589000df
:101b08000080fb004300de00610060000004e0008c
:101b1800660032002e08900040219000d0219000ed
:101b2800028fbe002e089000302090000000e000d8
:101b380004003a002e089000002090000000e00009
:101b480048003200ae0890000000eb00b02098007a
:101b5800ae0890000000eb00802098002e0990004d
:101b68006000b80040219800512198001e0890009c
:101b780000089000100290003e08900041072000e5
:101b8800808040002e08900030119000c011900015
:101b98001e08900000089000100078000400010062
:101ba800000f98000e0890000000e00003003200cb
:101bb80023002000730f9800470037002e0890007c
:101bc800c2022000000141003e08900041072000a9
:101bd800808040002e089000501090000080400047
:101be8001f000900325878000002b1000202b1005b
:101bf8001e08900000089000300290003e089000f7
:101c080041072000808040002e089000301190008d
:101c1800c01190001e089000000890001000780085
:101c280004000100000f98000e0890000000e0007a
:101c38000300320030002000700f980026003700a3
:101c48001e00be00e00f5000e08f58000500320073
:101c58003e08900010299000a02990001e089000ce
:101c6800de1107003e0990006000b800702198005e
:101c7800012998003e0990006000b80030299800ba
:101c8800412998003e0990006000b800102998008a
:101c9800212998003e0890004107200080804000dc
:101ca8003e08900051289800090037003e0990002e
:101cb8006000b80030299800412998003e0890003b
:101cc80041072000808040003e089000512898007d
:101cd8008000eb00710f98007e0890004f05be0051
:101ce8004f04be000080fa00000006000600fa005b
:101cf800000f780011079800220798000002eb00f7
:101d08008001eb002e0190009e0090001e007800dc
:101d1800100007000080fa00000006000a00fa0020
:101d2800000f7800110798002207980033079800e1
:101d3800440798004e029000be0190002e019000ca
:101d48009e0090001e007800020007000080fa0044
:101d5800000006000a00fa00889fbe00000f780005
:101d68001107980022079800330798004407980045
:101d78001e007800ae009000712898001e007800c0
:101d8800c028900030289000800178001e0078005c
:101d9800a02890001028900062045000e0845800a9
:101da8001e00780010007800101890006103b80039
:101db8008800780006007800000ab80007c0b9005b
:101dc800050178000001410009b0b9000001410097
:101dd80082027800040178001e0078001000780064
:101de800f0089000600890000000410080804100e9
:101df8001e00780011309800400720009e00400027
:101e08001e007800100078000018900080804000c4
:101e18001e007800013098001e007800ce00900067
:101e280011389800a1f420001e0078007130980045
:101e38001e0078009e007800013898001e00780087
:101e4800be009000313098009e0078000040eb0002
:101e5800a0e898001e007800ae009000413098007d
:101e68001e0078009e009000213098009e007800a7
:101e78003e009000050007003e009000100078002a
:101e88004f04be000080fa00000006000a00fa00b5
:101e9800889fbe0030079800410798004e009000c8
:101ea80020e890000004e000930132004e0090000a
:101eb80020e89000e14f5000780032004e0090007a
:101ec80020e89000e24f5000d70032004e0090000a
:101ed80020e89000e34f50005d0132008601370092
:101ee8004e009000d02890004e00900000309000e6
:101ef800808f500074013a004e009000a028900096
:101f080010289000e00f5000e08f58000b003200be
:101f18004e00900030299000c02990004e0090009b
:101f280010007800101890000000e900010020005f
:101f3800800f5100818f5900fe003a004e0090003a
:101f480010007800e40047005f120700008fbe0011
:101f58002e0090000000e000050032004e009000c6
:101f6800b03090002e009000800878007a01370089
:101f78004e009000a028900010289000e00f50001c
:101f8800e08f5800c1003a009e0078004e00900093
:101f9800412098001e00be004008de00010020001d
:101fa800800078004e009000112098004e009000ac
:101fb80030309000100078000000e00012003a0075
:101fc8004e00900010007800000890001002900069
:101fd8004e009000100078008103200080804000af
:101fe8004e00900040119000d01190004e009000db
:101ff800100078000008900010007800040001002c
:102008002007980028003700ce00900010c0b300c9
:10201800a0e898004e00900010007800000890009a
:10202800200390004e009000e406200000024200c9
:102038004e009000c7062000808343004e009000a9
:102048001000780081032000808040004e0090003e
:1020580040119000d01190004e00900010007800c0
:1020680000089000100078008402780007027800c9
:1020780006000100200798002e0090000000e000f4
:10208800050032004e009000b03090002e00900005
:102098008008780030013700ffff37004e009000bd
:1020a80060309000200798002e0090000000e000ab
:1020b800130032004e00900070219000802990009b
:1020c8004e009000c03090004e00900070289000a4
:1020d800008050000100200002004000838048007a
:1020e8004e01900070219800012998004e00900040
:1020f800b0309000200020008008780016013700da
:102108004e009000e2022000000141004e009000c5
:102118001000780081032000808040004e0090006d
:1021280060109000008040001f00090032587800bd
:102138000002b1000202b1004e0090003030900061
:10214800100078000000e00012003a004e009000f5
:102158001000780000089000300290004e009000b7
:102168001000780081032000808040004e0090001d
:1021780040119000d01190004e009000100078009f
:102188000008900010007800040001002007980063
:1021980028003700ce00900020c0b300a0e89800c7
:1021a8004e00900010007800000890004003900056
:1021b8004e009000e4062000000242004e0090000d
:1021c800c7062000808343004e009000100078006e
:1021d80081032000808040004e0090004011900054
:1021e800d01190004e009000100078000008900078
:1021f80010007800840278000702780006000100c9
:10220800200798002e0090000000e0000500320032
:102218004e009000b03090002e00900080087800aa
:10222800cd003700ffff37004e009000603090006f
:10223800200798002e0090000000e0001a003200ed
:102248004e00900070219000802990004e00900070
:10225800c03090004e009000702890000080500020
:102268000100200002004000838048004e019000d9
:1022780070219800012998004e009000b03090001d
:102288003000200080087800b30037004e0090002e
:1022980010299000a02990004e00900010007800ae
:1022a8001e02be00130607004e0090001e01be006d
:1022b80012289800232898004e0190006000b8006a
:1022c80030299800412998004e009000a0289000dd
:1022d8001028900062045000e08458004e009000de
:1022e80010007800101890006103b800880078008a
:1022f80006007800000ab80007c0b9000501780098
:102308000001410009b0b9000001410082027800d3
:10231800040178004e00900010007800f00890004a
:1023280060089000800041004e0090001130980035
:102338000d0037004e009000c02890003028900013
:1023480061004000e08048004e019000302998006c
:10235800412998004e009000103090008000e8005d
:102368004e009000113098004e00900030309000e0
:10237800100078000000e000110032004e009000cc
:102388001000780000089000300290004e00900085
:1023980041072000808040004e00900010309000df
:1023a8006101b8004e00900010007800000890000d
:1023b800100078000400010020079800270037006b
:1023c800ce00900030c0b300a0e898004e00900006
:1023d8001000780000089000400390004e00900024
:1023e800e4062000000242004e009000c7062000cc
:1023f800808343004e009000410720008080400009
:102408004e009000103090006101b8004e0090001e
:10241800100078000008900010007800840278000e
:102428000702780006000100200798002e0090009f
:102438000000e000050032004e009000b03090002f
:102448002e0090008008780043003700ffff370017
:102458004e00900060309000200798002e009000f9
:102468000000e000130032004e0090007021900040
:10247800802990004e009000c03090004e009000df
:1024880070289000008050000100200002004000e9
:10249800838048004e01900070219800012998001f
:1024a8004e009000b0309000300020008008780086
:1024b800290037004e00900041072000808040002e
:1024c8004e009000512898004e009000d0289000af
:1024d8004e0090002031900012407800804878002b
:1024e8008100e8004e009000512898008200e80022
:1024f8004e009000213098004e0090007028900007
:102508008000e9004e009000712898004e0090006d
:1025180070289000e10f400071fe3a004e009000d4
:1025280070219000802990004e009000403090006b
:102538000100200002004000838048004e01900006
:1025480070219800012998004e009000b03090004a
:102558000000eb00800878004f04be000080fa00fd
:10256800000006000a00fa00000f78001107980022
:102578002207980033079800440798002e0190001e
:102588009e0090001e007800020007000080fa00fc
:10259800000006001000fa00889fbe008a9fbe0057
:1025a8004007980051079800620798004e00900075
:1025b800302d9000c02d90004e009000a028900073
:1025c8001028900062045000e08458004e009000eb
:1025d80010007800101890006102b8008800780098
:1025e80004007800000bb80005c0b90007017800a6
:1025f8000001410009a0b9000001410082037800f0
:102608004e00900010007800f008900060089000dc
:102618000600400087804800001f450001974d00d4
:102628004e00900040d890000004e00017003200ef
:102638004e009000100078000008900010029000f2
:102648004e00900041072000808040004e0090001e
:102658001000780000089000100078001e01be00ed
:1026680004000100300798003e0090000000e000e0
:102678000300320020002000700798008200370015
:10268800ce0090000040eb00c0d898004e009000ab
:1026980041072000808040004e0090001000780024
:1026a8000018900000804000200798006e00370056
:1026b8004e009000d02890002e009000808f50008f
:1026c8005e003a004e00900030299000c02990002a
:1026d8004e00900010007800101890000000e900eb
:1026e80001002000800f5100818f59002e003a0010
:1026f8004e00900021052000808040004e00900090
:1027080024052000000242004e00900010007800ce
:1027180081017800120020008400780092010700ef
:102728000004e00003003a008100200071079800cf
:10273800550037004e0190006000b800302998001d
:10274800412998004e009000a02890001028900081
:1027580062045000e08458004e0090001000780099
:10276800101890006102b800880078000400780012
:10277800000bb80005c0b90007017800000141004e
:1027880009a0b90000014100820378004e009000c2
:1027980010007800f008900060089000001f4300c7
:1027a80001974b000c0037004e009000c0289000a5
:1027b8003028900061004000e08048004e01900001
:1027c80030299800412998001000200001002000bd
:1027d8001e0f40005e9748004e00900010007800e1
:1027e80000089000100290004e0090004107200061
:1027f800808040004e009000100078000008900093
:10280800100078001e01be00040001003007980087
:102818003e0090000000e00003003200210020008c
:1028280071079800180037004e00900041072000fb
:10283800808040004e009000512898004e00900083
:1028480050299000924078005e009000014878007e
:102858005e0090000000e800500798008200e80041
:102868004e009000512898006e0090000000e9008a
:10287800600798006e009000e10f40008cff3a005e
:102888000000eb00700798007e0090004f05be0026
:102898004f04be000080fa00000006001000fa0095
:1028a800889fbe008a9fbe00600798006e00900057
:1028b800302d9000c02d90006e009000a028900050
:1028c8001028900062045000e08458006e009000c8
:1028d80010007800101890006102b8008800780095
:1028e80004007800000bb80005c0b90007017800a3
:1028f8000001410009a0b9000001410082037800ed
:102908006e00900010007800f008900060089000b9
:1029180006004000878048000a0040008b8048007d
:1029280020079800310798006e00900041072000aa
:10293800808040006e009000100078000018900021
:1029480000804000400798006e009000a02890008a
:1029580010289000e00f5000e08f58000b00320064
:102968006e00900030299000c02990006e00900001
:1029780010007800101890000000e9000100200005
:10298800800f5100818f590080003a006e0090003e
:1029980010007800ea004700cb0f0700008fbe0048
:1029a8005e0090000000e000030032005e0090002e
:1029b80070079800e70037006e009000a02890008c
:1029c80010289000e00f5000e08f580045003a00b2
:1029d8009e0078006e009000412098001e00be0006
:1029e8004008de0001002000800078006e009000a2
:1029f800112098006e0090001000780000089000e8
:102a0800100290006e0090001000780081032000f2
:102a1800808040006e00900040119000d01190001e
:102a28006e009000100078000008900010007800f8
:102a380004000100500798005e0090000000e000cc
:102a4800030032002200200072079800c1003700fe
:102a58006e009000e2022000000141006e0090002c
:102a68001000780081032000808040006e009000f4
:102a780060109000008040001f0009003258780064
:102a88000002b1000202b1006e0090001000780050
:102a980000089000300290006e009000100078004e
:102aa80081032000808040006e009000401190005b
:102ab800d01190006e00900010007800000890007f
:102ac8001000780004000100500798005e00900094
:102ad8000000e0000a00320033002000730798006d
:102ae8009c0037006e00900010299000a0299000eb
:102af8006e009000100078001e02be00fd03070063
:102b08006e0090001e01be0012289800232898002d
:102b18006e0190006000b8003029980041299800a3
:102b28006e009000a02890001028900062045000c9
:102b3800e08458006e009000100078001018900093
:102b48006102b8008800780004007800000bb80023
:102b580005c0b900070178000001410009a0b900cb
:102b680000014100820378006e0090001000780098
:102b7800f008900060089000060040008780480038
:102b88002007980031079800190037006e00900060
:102b9800502990006e00900041072000808040007e
:102ba8006e0090001000780000189000008040002f
:102bb800800f51000e0039006e009000c028900070
:102bc8003028900061004000e08048006e019000cd
:102bd80030299800412998002e009000be009000ee
:102be80061004000e0804800200798003107980005
:102bf8006e009000100078000008900030029000ed
:102c08006e00900041072000808040006e00900018
:102c18001000780000089000100078002e01900045
:102c2800be01900004000100500798005e0090006b
:102c38000000e00003003200330020007307980012
:102c4800440037006e0090008028900070209000ab
:102c58006e01900050219800612198006e0090004c
:102c68001000780000089000100290006e0090009c
:102c78001000780081032000808040006e009000e2
:102c880040119000d01190006e0090001000780064
:102c98000008900010007800040001005007980018
:102ca8005e0090000000e0000300320020002000d9
:102cb80070079800270037006e009000e20220009d
:102cc800000141006e009000100078008103200090
:102cd800808040006e0090006010900000804000ee
:102ce8001f000900325878000002b1000202b1004a
:102cf8006e009000100078000008900030029000ec
:102d08006e00900010007800810320008080400051
:102d18006e00900040119000d01190006e0090005d
:102d280010007800000890001000780004000100ee
:102d3800500798005e0090000000e0000300320099
:102d48003200200072079800020037008001eb0073
:102d5800730798007e0090004f05be004f04be0028
:102d68000080fa00000006000e00fa002007980014
:102d78003107980042079800530798003e009000da
:102d88001000be00008fbe000c0037001e01be0000
:102d98008e0078002e009000310207001e01be0050
:102da8002e009000310507000004e0000300320007
:102db8000000eb00600798000b0037004e00900001
:102dc8000000e900400798004e009000e10f400025
:102dd800eeff3a001e00be005e0190000089be00b2
:102de80010002000600798006e0090000080fa0034
:102df800000006002e07fa00889fbe008a9fbe00ca
:102e08004372200083014700800978006072200027
:102e18000000470001087800807220000000470089
:102e28000208780060722000000047001000780057
:102e3800104078000004e000030032000000eb00be
:102e480010079800630037008072200000004700d8
:102e580010007800814228000400090031587800e9
:102e68005000b100807220000000470090007800f8
:102e78008072200000004700c202200010004100bc
:102e8800f0110700807220000000470090007800d1
:102e980000c1b300f0709800807220000000470065
:102ea80010007800f0709000807220000000470049
:102eb80010007800514898008072200000004700f8
:102ec800100178006000b800402198005121980056
:102ed8008072200000004700100078004021900018
:102ee800d021900080722000000047001000780078
:102ef80072009800030898008072200000004700c4
:102f0800100178006000b800301198004111980055
:102f18008072200000004700900078000000eb005d
:102f2800d010980040722000000047001000780080
:102f380070489000e24f500017003a00407220009d
:102f48000000470010007800d0089000400890006a
:102f58008000780080722000000047001000780090
:102f680031209800407220000000470010007800cf
:102f7800d0089000400890004008de0001002000c2
:102f88008000780080722000000047001000780060
:102f9800012098000a0037008072200000004700d6
:102fa800900078000000eb00b020980080722000ac
:102fb80000004700900078000000eb008020980097
:102fc8008000eb00c07220000e004000010878006d
:102fd8009c0137004062200000004700200798004d
:102fe80060722000000047001000780090407800d0
:102ff800c0c5b30080cf500005003a0060722000c1
:103008008000470060722000000047009008e80038
:103018000000eb004007980027003700607220008e
:103028000000470010007800904078002e009000c3
:10303800014878002e0090000000e8002007980062
:103048006072200080004700607220000000470086
:103058009008e8000040eb00a27220000e01410039
:1030680000497800ce009000f00f2000808f5000bb
:103078000400360012c0b300a17220008e80400008
:10308800824878004e0090000000e8004007980051
:10309800a07220000e004000104078000004e000fc
:1030a8000500320052002000c17220008e804000ce
:1030b8008208780063013700607220000000470032
:1030c80010007800104078000004e000070032008b
:1030d80060722000000047001000780090407800df
:1030e800c0c5b30080cf5000ccff3a00ae009000be
:1030f8000040eb0080487800f8004700407220004c
:1031080000004700810178000041eb009e0090001c
:103118001000780050060700400798004e00900005
:103128000000e00005003200ce009000c0722000d0
:103138000e0040000108780042013700780047007f
:1031480050009000104078000004e0000a003a00a7
:103158008072200000004700900078000040eb00db
:10316800804878000000eb00c27220000e01410088
:1031780000097800330137000040eb00004f780069
:1031880040622000800047006a0047002d110700b8
:10319800e50f500016003a0040622000800047000a
:1031a80040422000000047006f0d0700e54f500027
:1031b80005003a0052002000c17220008e804000b5
:1031c800820878001f01370010c0b300004f780054
:1031d80078004700c1202000808040004042200045
:1031e80000004700e61007006047980033003700ea
:1031f8007800470050009000800078006a0047007f
:10320800cf100700604798002c003700f8004700ef
:103218004072200000004700100078006c0807008a
:10322800400798004e0090000000e00005003200c2
:10323800ce009000c07220000e0040000108780007
:103248000001370078004700500090000000e000bf
:103258000a003a00807220000000470090007800c1
:103268000040eb00804878000000eb00c2722000ac
:103278000e01410000097800f20037001e04e0004a
:103288000800320078004700c120200080804000fc
:103298004042200000004700b9100700604798002e
:1032a8000600370078004700500090008000780042
:1032b8006a004700a2100700604798006e4090001f
:1032c8000004e000d1ff320078004700d0009000f1
:1032d8001107980060722000000047001000780075
:1032e800104078000004e0003aff3a0078004700f8
:1032f8005000900080007800807220000000470095
:1033080010007800600c070078004700500090001b
:10331800b04890008072200000004700100078003c
:103328005148980078004700d0009000415890001c
:103338000082fb00515890000080fb004800dd002f
:103348000400700000017800615890000082fb00c2
:10335800715890000080fb004800dd0004007000f8
:10336800800178008072200000004700100078007b
:10337800720098000308980078004700d000900079
:10338800015090000081fb00115090000080fb006c
:103398004800dd00020070002b0d07000001be0090
:1033a8008072200000004700100078001208980082
:1033b8002308980078004700d000900061489000ea
:1033c8000081fb00714890000080fb004800dd0090
:1033d80002007000270d07000001be008072200067
:1033e8000000470010007800320898004308980051
:1033f80078004700d0009000015890000081fb0041
:10340800115890000080fb004800dd0002007000a9
:103418000d0d07000001be0080722000000047006b
:103428001000780052089800630898007800470058
:10343800d0009000615090000081fb007150900016
:103448000080fb004800dd0002007000090d070045
:103458000001be00807220000000470010007800c4
:10346800720898000310980078004700d000900078
:10347800215090000081fb00315090000080fb003b
:103488004800dd0002007000ef0c07000001be00dc
:103498008072200000004700100078001210980089
:1034a8002310980078004700b0009000200090009a
:1034b800e00f5000e08f580026003a0040722000cc
:1034c8000000470010007800701090006105b800f7
:1034d8004072200000004700100078002050900043
:1034e8000084fb0009002000407220000000470013
:1034f80010007800200b9000b00b90008800780036
:1035080006007800000ab80007c0b9000501780075
:103518000001410009b0b9000001410082027800b1
:103528000a0142008b814a00780047001000900091
:1035380001002000020140008381480080722000c1
:1035480000004700100078003210980043109800df
:103558002400370078004700b00090002000900059
:1035680062045000e08458004072200000004700c8
:1035780010007800101890006102b80088007800e8
:1035880004007800000bb80005c0b90007017800f6
:103598000001410009a0b900000141008203780040
:1035a800407220000000470010007800f0089000ea
:1035b80060089000060140008781480078004700b5
:1035c80010009000010020000201400083814800a3
:1035d8008072200000004700100078003210980028
:1035e8004310980078004700500090008000780051
:1035f800780047006c0040008080500080722000f6
:10360800000047001000780051109800780047002b
:10361800d000900080722000000047001000780061
:10362800c002b0001f000900315878000002b10044
:103638000102b1000000eb00c27220000e0141003f
:1036480000097800c17220008e80400011007800c7
:103658004f05be004f04be000080fa0000000600bf
:103668002602fa00889fbe00000f9a00120f9a00e7
:10367800230f9a00310f9a000e08920070489000ac
:103688000004e000af003a001e089200ae08920065
:103698008101d1000081d3001e089200ae0892007b
:1036a80002004000838048004007980051079800b6
:1036b8000e089200701090006104b8000e08920085
:1036c800001890006101b8004e009000de009000e4
:1036d800a8f30700080040008980480020079800e8
:1036e800310798000e089200001890006101b80098
:1036f8004e009000de009000aef30700008fbe0081
:103708000e089200001890000000e9000100200057
:10371800be0f5000ae8f580030003a000e089200dd
:1037280000089000100290000e0892000008900017
:10373800ee0047002e019000be0190000400010039
:10374800600798006e0090000000e000030032005f
:1037580020002000600f9a00e2003700e3202000dc
:103768008e8141001e00be006e014700000041002e
:1037780010407800804978000e08920000089000f8
:10378800100290002e009000be00900061014000e1
:10379800e08148000e08920000089000ee00470003
:1037a80004000100600798006e0090000000e0002f
:1037b8000300320021002000610f9a00c900370081
:1037c800e02020000e0040008000e8006e00470066
:1037d8001040780080487800220037000e089200d8
:1037e80000089000100290000e0892000008900057
:1037f800ee0047002e019000be0190000400010079
:10380800600798006e0090000000e000030032009e
:1038180022002000620f9a00b2003700e320200047
:103828008e8141001e00be006e014700000041006d
:103838001040780080497800e02020000e00400009
:103848008001e80014002000050020003e0042002e
:10385800ae804a006e014700000041001040780029
:10386800804978001e089200ae089200610160004d
:103878006000b80003002000020070008380700020
:103888000000e000060032007e0092004400de00e6
:103898006101b800420f9a00530f9a0022003700c6
:1038a8007e00920001002000f2ff200003002000ab
:1038b8000002780081027800020078008300780016
:1038c80000016200018062006102b800740f9a0072
:1038d80005179a007e0892008e109200c000dd0045
:1038e80000002000700f9a0001179a007e0a9200cb
:1038f8008e129200440f9a00550f9a006110b8007a
:10390800700f9a0001179a004e099200de09920082
:103918007e0a92008e129200040171008581710066
:10392800420f9a00530f9a003e0892004e099200e7
:10393800de0992000288be008001eb00630f9a0046
:10394800680037000e08920070489000e14f500060
:1039580007003a001e089200ae08920000004000de
:1039680081804800400798005107980008003700f8
:103978001e089200ae089200420add00ce00de006a
:10398800810072004200dd0040079800510798004e
:103998000e089200701090006104b8000e089200a2
:1039a800001890006101b8004e009000de00900001
:1039b800f0f20700080040008980480020079800be
:1039c800310798000e089200001890006101b800b5
:1039d8004e009000de009000f6f20700008fbe0057
:1039e8000e08920000089000100290000e08920045
:1039f8000008900010007800ee0047002e019000ab
:103a0800be01900004000100600798006e0090005d
:103a18000000e0000300320025002000650f9a0036
:103a2800300037000e08920070489000e14f5000b7
:103a380009003a001e007800800078006e004700f8
:103a48000100400010007800010020003e099200ab
:103a58000089be00210037001e0078008000780031
:103a68006e004700010040001000be00f2ff2f006a
:103a7800f3ff20000002780081027800020078003d
:103a88008300780000016200018062006102b800d2
:103a980014179a0025179a001e109200ae10920073
:103aa800c000dd000000200010179a0021179a00be
:103ab8001e109200ae1092006112b80014179a00fe
:103ac80025179a001e119200ae1192000200700094
:103ad800838070003e0992000089be008001eb00df
:103ae800630f9a006e0892004f04be000080fa002f
:103af800000006002202fa00889fbe0070079a00a4
:103b0800020f9a00130f9a00240f9a00350f9a009b
:103b18007e009200704890000004e00025013a0001
:103b28000e0892009e0892008101d1000081d30006
:103b38000e0892009e089200020040008380480010
:103b480040079800510798007e009200701090007e
:103b58006104b8007e009200001890006101b8006e
:103b68004e009000de00900082f20700080040003e
:103b78008980480020079800310798007e0092004d
:103b8800001890006101b8004e009000de0090001f
:103b980088f20700008fbe007e0092000018900097
:103ba8000000e90001002000be0f5000ae8f580051
:103bb8008c003a007e0092000008900010029000ed
:103bc8007e00920000089000ee0047002e01900051
:103bd800be01900004000100600798006e0090008c
:103be8000000e0000300320020002000400f9a008f
:103bf8009a0137000e0892009e0892006101600049
:103c08006000b8000300200002007000838070008c
:103c18000000e000080032001e01be004021200024
:103c28000e004000904078006e00470002004000ff
:103c380001487800160037001e02be001e00be00b4
:103c48006e014700000041009040780000cfb300ab
:103c580080c060006e004700040040000148780002
:103c68001e02be001e00be006e014700000041009b
:103c780090407800402120000e004000104078005d
:103c880080c070006e0047000400400001487800c2
:103c98007e00920000089000300290007e009200a2
:103ca80000089000ee0047002e019000be01900031
:103cb80004000100600798006e0090000000e0001a
:103cc8000300320031002000410f9a0063013700e1
:103cd8007e00920000089000100290002e009000d4
:103ce800be00900061014000e08148007e00920023
:103cf80000089000ee0047000400010060079800eb
:103d08006e0090000000e000030032002200200056
:103d1800420f9a00510137000e0892009e08920047
:103d2800610160006000b80003002000020070001c
:103d3800838070000000e0000f0032006e00470032
:103d480010407800ef4060006e004700014878009e
:103d58006e00470090407800402120000e0040008f
:103d68000000e8001040780080c070006e00470036
:103d78000148780006003700402120000e0040006e
:103d88000000e800904078006e0047000148780085
:103d98007e00920000089000300290002e009000f3
:103da800be00900061014000e08148007e00920062
:103db80000089000ee00470004000100600798002a
:103dc8006e0090000000e000030032003300200085
:103dd800430f9a00210137000002eb00440f9a00bc
:103de8001e0137007e00920000089000100290002b
:103df8007e00920000089000ee0047002e0190001f
:103e0800be01900004000100600798006e00900059
:103e18000000e0000300320025002000450f9a0052
:103e28000e0137000e0892009e08920061016000a2
:103e38006000b8000300200002007000838070005a
:103e48000000e0002b0032001e01be0040212000cf
:103e58000e004000904078006e00470002004000cd
:103e68000148780010002000010020003e024000b8
:103e7800ae82480012002000030020003e004100ee
:103e8800ae8049006e014700000041009040780074
:103e980000cfb30080c060006e00470004004000ff
:103ea8000148780010002000010020003e02400078
:103eb800ae82480012002000030020003e004100ae
:103ec800ae8049006e014700000041009040780034
:103ed800402120000e0040000000e800104078005b
:103ee80080c070006e004700040040000148780060
:103ef8001d0037001e02be001e00be006e014700f6
:103f08000000410010407800ef4060006e0047005c
:103f180004004000014878001e02be001e00be00da
:103f28006e014700000041009040780040212000c9
:103f38000e0040001040780080c070006e004700fe
:103f480004004000014878001e01be004021200006
:103f58000e0040000000e800904078006e00470026
:103f680002004000014878007e009200000890009e
:103f7800100290007e00920000089000ee004700ba
:103f88002e019000be019000040001006007980017
:103f98006e0090000000e0000300320023002000c3
:103fa800430f9a00ad0037000002eb00440f9a005f
:103fb800aa0037007e00920070489000e14f500040
:103fc80007003a000e0892009e0892000000400088
:103fd8008180480040079800510798000800370082
:103fe8000e0892009e089200c20add00ce00de0094
:103ff800818072004200dd00400798005107980058
:104008007e009200701090006104b8007e0092005b
:10401800001890006101b8004e009000de0090008a
:1040280054f10700080040008980480020079800e4
:10403800310798007e009200001890006101b800d6
:104048004e009000de0090005af10700008fbe007d
:104058007e00920000089000100290007e009200fe
:104068000008900010007800ee0047002e01900034
:10407800be01900004000100600798006e009000e7
:104088000000e0000300320020002000400f9a00ea
:10409800720037007e00920070489000e14f500097
:1040a80009003a001e007800800078006e00470082
:1040b80001004000000178002e089200be0892001e
:1040c80000097800520037002e089200be089200be
:1040d800f2ff2f00f3ff2000000278008102780031
:1040e800020078008300780000016200018062000d
:1040f8006102b800540f9a00650f9a005e0892009a
:10410800ee089200c000dd0000002000500f9a0069
:10411800610f9a005e089200ee0892006112b800e2
:10412800540f9a00650f9a005e099200ee099200fa
:104138000200700083807000200f9a00310f9a00ef
:104148001e007800800078006e00470001004000e3
:10415800000378001e007800800078006e00470099
:10416800010040001000be000200200003002f00e4
:10417800000278008102780002007800830078004d
:1041880000016200018062006102b800740f9a00a9
:1041980005179a007e0892008e109200c000dd007c
:1041a80000002000700f9a0001179a007e08920004
:1041b8008e1092006112b800740f9a0005179a00c9
:1041c8007e0992008e1192000200700083807000b8
:1041d800008bbe001e007800800078006e0047004b
:1041e80001004000000278001e007800800078007e
:1041f8006e004700010040001001be002e0892002a
:10420800be0892000000710081807100008abe0023
:104218007e00920000089000300290007e0092001c
:104228000008900010007800ee0047002e01900072
:10423800be01900004000100600798006e00900025
:104248000000e0000300320033002000430f9a0012
:10425800020037000002eb00440f9a004e0892005b
:104268004f04be000080fa00000006000a00fa00b1
:10427800000f780012079800230798001e007800a6
:10428800704890000080fb00400798004e009000a6
:10429800e10f5000130032004e009000e20f500072
:1042a8001c0032004e0090000000e00001003200c7
:1042b800240037000000eb00300798001e01900032
:1042c800ae01900070ff200001002000800f510017
:1042d800818f59001d00360010002000300798001b
:1042e8001a0037000000eb00300798001e0190000c
:1042f800ae01900070ff2f0001002000800f5100d8
:10430800818f5900110036001000200030079800f6
:104318000e0037000000eb00300798001e019000e7
:10432800ae01900070ff2f00f1ff2000800f5100b8
:10433800818f5900050036001000200030079800d2
:10434800020037000000eb00300798003e009000a4
:104358000080fa00000006006800fa002037980084
:10436800e900470011407800e0486000b0ceb30093
:1043780091487000114090006040600090409800a3
:10438800214090006040600002c9b3000240700004
:10439800a0409800e9004700d0c4b300b04098009e
:1043a800e900470030c5b300c0409800e900470065
:1043b80070c5b300d0409800e900470090c4b3002e
:1043c800e0409800e9004700e0c4b300f0409800de
:1043d800e900470040c3b30080489800e90047005f
:1043e800e0c2b30090489800e900470010c3b3004a
:1043f800a0489800e900470000cfb300d0509800cb
:10440800e900470021589000604060000004a000c7
:10441800a05898003158900060406000b05898004b
:1044280069004700c0589000e0c0600041589800fb
:10443800d0589000e0c0600051589800e0589000b3
:10444800e0c0600061589800f0589000e0c060003b
:10445800715898002e309000e00090002e309000a7
:10446800100078000100010020079800310798002b
:104478002e309000d00090002e3090001000780070
:104488000100010001002000008fbe002e019000f5
:10449800be019000f03f200001002000800f510075
:1044a800818f59001700360020c0b300004f9800d4
:1044b80069014700624890006040600001c2b30093
:1044c80001407000604998007248900060406000a8
:1044d80070499800e900470020c0b3008050980058
:1044e800e90047001150900060406000905098002b
:1044f80021509000604060000014a000a050980077
:104508001400370010c0b300004f9800e9004700be
:1045180061489000604060000004a000e0489800f6
:104528007148900060406000f0489800e90047003a
:1045380020c0b30080509800e90047001150900057
:1045480060406000905098002150900060406000ea
:10455800a05098000e489000e24f5000070032002b
:104568002e019000be019000f0ff2f0001002000f6
:10457800800f5100818f590023003600e900470061
:104588002e019000f00f20000001610001609000f2
:104598006040600002407000806098002e0090002b
:1045a8004801de0011609000604060000240700029
:1045b800906098003e019000f00f2000000161001b
:1045c800216090006040600002407000a060980088
:1045d8003e0090004801de003160900060406000bd
:1045e80002407000b0609800e90047003150900028
:1045f80060406000b05098004150900060406000fa
:10460800c05098001a003700ae019000e90047003a
:10461800f00f200000816100315090006040600080
:1046280002407000b05098004819de0041509000d8
:104638006040600002407000c05098006900470068
:1046480080609000e0c06000016098009060900079
:10465800e0c0600011609800a0609000e0c06000b9
:1046680021609800b0609000e0c060003160980060
:104678000e489000e24f500005003a002e009000ce
:10468800be0090002400070060e79800040037008f
:104698002e009000be0090004200070060e79800de
:1046a80069004700eee0900051489800e900470093
:1046b8003148900060406000b04898004148900040
:1046c80060406000c0489800e90047000040eb00e7
:1046d800d0489800e90047006150900060406000b1
:1046e800e05098007150900060406000f0509800d1
:1046f800e900470001589000604060008058980029
:104708001158900060406000905898000000eb003d
:104718000080fa00000006000800fa001007980060
:10472800210798000040eb00004f78001500370083
:104738001e80fb006600b900800078004040280019
:10474800008040001001be001e009000ae009000e6
:10475800800f5100818f5900090039001e80fb002d
:104768006600b900e4004000404028000080400096
:10477800104078000080fb003007980006003700e2
:104788001e4fe80050c0b3009e4f1000e8ff3600ef
:104798000000eb00300798003e0090000080fa000f
:1047a800000006000800fa0010079800210798008a
:1047b8000040eb00004f7800150037001e80fb001a
:1047c8006600b90080007800403d28000080400065
:1047d8001001be001e009000ae009000800f510036
:1047e800818f5900090039001e80fb006600b9005e
:1047f800e4004000403d2800008040001040780060
:104808000080fb0030079800060037001e4fe800c4
:1048180070c0b3009e4f1000e8ff36000000eb00a8
:10482800300798003e0090000080fa000000060063
:104838001200fa0050079800620798007307980062
:1048480001579800de009000115090000081fb0095
:10485800215090000080fb004800dd00020070003d
:10486800c501dd00de009000314890000081fb00aa
:10487800414890000080fb004800dd000200700005
:10488800008041008001e900de009000314890007e
:104898000081fb00414890000080fb004800dd00db
:1048a8000200700000017800110009008281d80020
:1048b800000f7800de009000614890000081fb0046
:1048c800714890000080fb004800dd000200700085
:1048d8001e0040006101b8006e009000fe009000cc
:1048e8000200500083805800300798004107980064
:1048f8005e009000504890000080fb00c800dd007a
:104908005e009000005090000080fb000080400096
:10491800cf80de0010079800210798000e50900005
:10492800e24f500006003a001e009000ae009000d2
:104938008100d1000080d30010079800210798005b
:104948000e509000e24f50002b003a00de0090001d
:104958006150900060406000e050980071509000f5
:1049680060406000f05098001e009000ae0090007b
:1049780061005000e08058001e019000ae019000d8
:10498800fcee07000001be003e009000ce00900043
:104998000201400083814800de009000f00f2000f3
:1049a80000026100416090006040600004407000b7
:1049b800c06098004812de005160900060406000be
:1049c80004407000d0609800f00f20000082610061
:1049d800616090006040600004407000e0609800f2
:1049e8004819de007160900060406000024070006d
:1049f800f0609800160037001e009000ae0090008e
:104a080061005000e08058001e019000ae01900047
:104a1800d8ee0700800078003e00900080814000ba
:104a2800de009000f00f20000081610061509000ce
:104a38006040600002407000e05098004819de00b5
:104a4800715090006040600002407000f050980083
:104a58000080fa00000006001400fa00889fbe00db
:104a68008a9fbe004007980051079800424f98005f
:104a7800730798005e0090000000e0003f003a00d5
:104a88004e00900070489000e24f50001f003a001e
:104a98004e009000d0089000400890007e019000e1
:104aa80020019800310198007e009000b00090002d
:104ab8002000900062045000e08458004e009000ee
:104ac800101890006102b80088007800040078008f
:104ad800000bb80005c0b9000701780000014100cb
:104ae80009a0b90000014100820378004e0090003f
:104af800f008900060089000060040008780480099
:104b08001007980021079800640037007e01900084
:104b18006000b80020019800310198004e00900014
:104b2800701090006105b8004e0090002050900071
:104b38000084fb00090020004e009000200b90002c
:104b4800b00b90008800780006007800000ab800d2
:104b580007c0b900050178000001410009b0b9009b
:104b680000014100820278000a0042008b804a005e
:104b78001007980021079800480037005e00900051
:104b8800304890000080fb004400de0061006000b7
:104b98000000e00003003a0040002000100f9800d9
:104ba800060237007e009000640040008001780013
:104bb800de009000215890000081fb0031589000e1
:104bc8000080fb004800dd000200700080097800ca
:104bd8004e00900070489000e24f500017003a00d5
:104be8007e009000640040008081e800de009000b4
:104bf800415090000081fb00515090000080fb0064
:104c08004800dd0002007000804978007e009000b6
:104c180064004000e3014000de0090004150900035
:104c28000081fb00515090000080fb004800dd002f
:104c3800020070004800de00804978007e00900085
:104c4800b00090002000900062045000e0845800fa
:104c58004e009000101890006102b800880078009b
:104c680004007800000bb80005c0b90007017800ff
:104c78000001410009a0b900000141008203780049
:104c88004e009000f0089000600890000600400078
:104c98008780480010079800210798004e00900070
:104ca80000089000100290007e009000ec00400088
:104cb8004e00900000089000100078001e0190003f
:104cc800ae019000040001007e009000ce489000e4
:104cd800014878007e0090006c0040008000780059
:104ce8007e009000410098007e0090006c0040001b
:104cf800800078007e009000510098004e009000df
:104d0800101890006101b8001e009000ae009000dd
:104d180028ee0700800078007e00900011009800bf
:104d28007e00900050009000104078000004e000e1
:104d380006003a00fe0090000000eb00d00098004a
:104d48000000eb00100f98009c0137007e009000d7
:104d58005000900030489000ef4f500047013a0053
:104d68007e00900050009000104078000080fb000a
:104d78004600de00610060000004e000120032001e
:104d88007e009000500090009040780000c4b3006e
:104d980000c068000040e80000417800fe00900074
:104da800a040200000804000024878007e0090006b
:104db8005000900050499000fe009000b040200044
:104dc8000080400002487800fe009000b0402000bb
:104dd80000804000904078007e00900050009000d5
:104de8005048900080cf50001c013a00fe0090000f
:104df800a040200000804000104078000081fb00a7
:104e08007e00900050009000104078008080fb00e9
:104e1800f00b2000008060000000e800800f5100c7
:104e28000e013a007e0090005000900090407800fb
:104e3800f0cbb30000c16000fe009000a04020004d
:104e48000080400002487800fe009000a04020004a
:104e580000804000104078000080fb006d00b90021
:104e6800ed0150007e009000d000900011409000ad
:104e78000081fb00214090000080fb004800dd001d
:104e88000200700000017800fe00900003804100dd
:104e9800c020b00002b07800fe009000a0402000c2
:104ea80000804000104078000080fb006d00b900d1
:104eb800ec0150007e009000d0009000314090003e
:104ec8000081fb00414090000080fb004800dd00ad
:104ed8000200700000017800fe009000038041008d
:104ee800c020b00002b07800fe009000a040200072
:104ef80000804000104078000080fb006d00b90081
:104f0800eb0150007e009000d000900051409000ce
:104f18000081fb00614090000080fb004800dd003c
:104f28000200700000017800fe009000038041003c
:104f3800c020b00002b07800fe009000a040200021
:104f480000804000104078000080fb006d00b90030
:104f5800ea0150007e009000d0009000714090005f
:104f68000081fb00014890000080fb004800dd0044
:104f78000200700000017800fe00900003804100ec
:104f8800c020b00002b07800fe009000a0402000d1
:104f980000804000104078000080fb006d00b900e0
:104fa800e90150007e009000d00090001148900068
:104fb8000081fb00214890000080fb004800dd00d4
:104fc8000200700000017800fe009000038041009c
:104fd800c020b00002b07800fe009000a040200081
:104fe80000804000104078000080fb006d00b90090
:104ff800e80150007e009000d000900061489000c9
:105008000081fb00714890000080fb004800dd0033
:105018000200700000017800fe009000038041004b
:10502800c020b00002b07800fe009000a040200030
:1050380000804000104078000080fb006d00b9003f
:10504800e70150007e009000d000900001509000d1
:105058000081fb00115090000080fb004800dd003b
:105068000200700000017800fe00900003804100fb
:10507800c020b00002b07800fe009000a0402000e0
:1050880000804000104078000080fb006d00b900ef
:10509800e60150007e009000d00090002150900062
:1050a8000081fb00315090000080fb004800dd00cb
:1050b8000200700000017800fe00900003804100ab
:1050c800c020b00002b07800fe009000a040200090
:1050d80000804000104078000080fb006d00b9009f
:1050e800e50150007e009000d000900041509000f3
:1050f8000081fb00515090000080fb004800dd005b
:105108000200700000017800fe009000038041005a
:10511800c020b00002b07800fe009000a04020003f
:1051280000804000104078000080fb006d00b9004e
:10513800e40150007e009000d00090006150900083
:105148000081fb00715090000080fb004800dd00ea
:105158000200700000017800fe009000038041000a
:10516800c020b00002b07800fe009000a0402000ef
:1051780000804000104078000080fb006d00b900fe
:10518800e30150007e009000d0009000015890008c
:105198000081fb00115890000080fb004800dd00f2
:1051a8000200700000017800fe00900003804100ba
:1051b800c020b00002b07800fe009000a04020009f
:1051c80000804000104078000080fb006d00b900ae
:1051d8008081e9007e009000d00090004158900046
:1051e8000081fb00515890000080fb004800dd0062
:1051f8000200700000017800fe009000038041006a
:10520800c020b00002b07800fe009000a04020004e
:1052180000804000104078000080fb006d00b9005d
:105228008001e9007e009000d00090006158900055
:105238000081fb00715890000080fb004800dd00f1
:105248000200700000017800fe0090000380410019
:10525800c020b00002b0780005003700fe009000c2
:10526800b0402000808040000040eb00804878007b
:105278000040eb00004f78003d0037007e009000b2
:1052880050009000304890000080fb000000d100e2
:10529800610060000000e000060032004e48900007
:1052a8000080fb000000d100610060000004e00005
:1052b8002b0032007e009000500090003048900093
:1052c8000080fb004200de00610060000000e0009a
:1052d800060032004e4890000080fb004200de00cd
:1052e800610060000004e0001d0032007e009000b4
:1052f80050009000304890000080fb004300de0022
:10530800610060000000e000060032004e48900096
:105318000080fb004300de00610060000004e00044
:105328000f0032007e00900050009000304890003e
:105338000080fb006f0060000000e0000500320004
:105348004e4890000080fb006f0060000000e00005
:105358000300320011002000010f980002003700fe
:105368000000eb00000f98008e509000014f78006d
:105378001e04e000050032007e00900050009000fe
:1053880010407800fb4f40000a003a00fe009000f1
:105398004e0090000e000700300798003e00900075
:1053a8000000e000030032003e009000100f98005b
:1053b800020037008000eb00110f98001e089000d3
:1053c8004f05be004f04be000080fa000000060032
:1053d8001200fa00889fbe005007980061079800e5
:1053e800000037006e0090005000900080007800a8
:1053f8006e00900040009000808050005e00900099
:1054080000189000808f500074003a006e009000e1
:10541800b000900020009000e00f5000e08f58008e
:10542800270032006e009000900090005e0090000f
:10543800101890000000e900808f500020003a000a
:105448006e00900020019000b0019000e600470037
:105458005e00900082f807000000e00003003200c0
:1054680010002000000f98000d0237003e01900048
:10547800ce0190005e0090007cfb07000004e00075
:1054880006003200ee0090000000eb00d00098000b
:105498000000eb00000f9800010237003e0090006a
:1054a800ce0090006e019000200198003101980014
:1054b800ee0090000000eb00900098001700370005
:1054c8006e009000100090008000e8006e009000d0
:1054d800110098006e009000b0009000200090002d
:1054e800e00f5000e08f58000c003a006e0090006a
:1054f800900090005e00900060109000808f500037
:1055080006003a00ee0090000000eb00d000980082
:105518000000eb00000f9800e10137006e009000da
:10552800b00090002000900062045000e084580011
:105538005e009000101890006102b80088007800a2
:1055480004007800000bb80005c0b9000701780016
:105558000001410009a0b900000141008203780060
:105568005e009000f008900060089000060140007e
:10557800878148006e009000100090000100200014
:10558800001f4100019749005e009000000890004c
:10559800100290006e009000ec0040005e00900049
:1055a80000089000100078001e01be0004000100f1
:1055b8006e0090006c004000800078006e00900043
:1055c800410098006e0090006c0040008000780058
:1055d8006e00900051009800060037006e009000a1
:1055e8005000900001022000808040006e00900072
:1055f800510098006e0090005000900030489000d4
:10560800ef4f500047013a006e00900050009000a4
:10561800104078000080fb004600de00610060005a
:105628000004e000120032006e009000500090006c
:105638009040780000c4b30000c068000040e80053
:1056480000417800ee009000a0402000008040005b
:10565800024878006e009000500090005049900079
:10566800ee009000b0402000008040000248780022
:10567800ee009000b040200000804000904078008c
:105688006e009000500090005048900080cf50006d
:105698001c013a00ee009000a0402000008040006d
:1056a800104078000081fb006e00900050009000d0
:1056b800104078008080fb00f00b20000080600024
:1056c8000000e800800f51000e013a006e009000c3
:1056d8005000900090407800f0cbb30000c160000b
:1056e800ee009000a04020000080400002487800b2
:1056f800ee009000a040200000804000104078009c
:105708000080fb006d00b900ed0150006e009000b4
:10571800d0009000114090000081fb0021409000d3
:105728000080fb004800dd000200700000017800e6
:10573800ee00900003804100c020b00002b0780065
:10574800ee009000a040200000804000104078004b
:105758000080fb006d00b900ec0150006e00900065
:10576800d0009000314090000081fb004140900043
:105778000080fb004800dd00020070000001780096
:10578800ee00900003804100c020b00002b0780015
:10579800ee009000a04020000080400010407800fb
:1057a8000080fb006d00b900eb0150006e00900016
:1057b800d0009000514090000081fb0061409000b3
:1057c8000080fb004800dd00020070000001780046
:1057d800ee00900003804100c020b00002b07800c5
:1057e800ee009000a04020000080400010407800ab
:1057f8000080fb006d00b900ea0150006e009000c7
:10580800d0009000714090000081fb00014890009a
:105818000080fb004800dd000200700000017800f5
:10582800ee00900003804100c020b00002b0780074
:10583800ee009000a040200000804000104078005a
:105848000080fb006d00b900e90150006e00900077
:10585800d0009000114890000081fb002148900082
:105868000080fb004800dd000200700000017800a5
:10587800ee00900003804100c020b00002b0780024
:10588800ee009000a040200000804000104078000a
:105898000080fb006d00b900e80150006e00900028
:1058a800d0009000614890000081fb007148900092
:1058b8000080fb004800dd00020070000001780055
:1058c800ee00900003804100c020b00002b07800d4
:1058d800ee009000a04020000080400010407800ba
:1058e8000080fb006d00b900e70150006e009000d9
:1058f800d0009000015090000081fb0011509000f2
:105908000080fb004800dd00020070000001780004
:10591800ee00900003804100c020b00002b0780083
:10592800ee009000a0402000008040001040780069
:105938000080fb006d00b900e60150006e00900089
:10594800d0009000215090000081fb003150900061
:105958000080fb004800dd000200700000017800b4
:10596800ee00900003804100c020b00002b0780033
:10597800ee009000a0402000008040001040780019
:105988000080fb006d00b900e50150006e0090003a
:10599800d0009000415090000081fb0051509000d1
:1059a8000080fb004800dd00020070000001780064
:1059b800ee00900003804100c020b00002b07800e3
:1059c800ee009000a04020000080400010407800c9
:1059d8000080fb006d00b900e40150006e009000eb
:1059e800d0009000615090000081fb007150900041
:1059f8000080fb004800dd00020070000001780014
:105a0800ee00900003804100c020b00002b0780092
:105a1800ee009000a0402000008040001040780078
:105a28000080fb006d00b900e30150006e0090009b
:105a3800d0009000015890000081fb0011589000a0
:105a48000080fb004800dd000200700000017800c3
:105a5800ee00900003804100c020b00002b0780042
